:100000000C94E9000C94D60D0C94FD0D0C94110188
:100010000C9411010C9411010C9411010C94110118
:100020000C9411010C9411010C9411010C94110108
:100030000C9411010C9411010C9411010C941101F8
:100040000C94790C0C9411010C94D8130C940A1490
:100050000C9411010C9411010C9411010C941101D8
:100060000C9411010C9411017A10FA0FFE0F02107A
:1000700006100A100D101010141017101B101E106F
:10008000221025107E103410381098103C105D108E
:1000900040106510681043106F1047104A104D1043
:1000A00082105D106110651068106B106F10731076
:1000B00077100000000800020100000304070000A0
:1000C000000000000000010204081020408001022E
:1000D000040810200102040810200404040404048D
:1000E00004040202020202020303030303030000EA
:1000F0000000250028002B0000000000240027003D
:100100002A0052657475726E696E6720746F205094
:10011000726576696F7573204D6F646520466169FD
:100120006C7572652E2E2E006053657474696E674F
:10013000204944204D6F6465204661696C75726585
:100140002E2E2E0053657474696E672042617564AB
:1001500072617465205375636365737366756C2192
:100160000053657474696E672042617564726174CE
:1001700065204661696C7572652E2E2E00456E7481
:100180006572696E6720436F6E6669677572617428
:10019000696F6E204D6F646520537563636573737B
:1001A00066756C2100456E746572696E6720436FD9
:1001B0006E66696775726174696F6E204D6F6465F4
:1001C000204661696C7572652E2E2E00DB0BD00DFA
:1001D000301411241FBECFEFD8E0DEBFCDBF12E038
:1001E000A0E0B1E0EAE3FEE202C005900D92AC3F70
:1001F000B107D9F728E0ACEFB2E001C01D92A435F9
:10020000B207E1F710E0C9EED0E004C02197FE018B
:100210000E941517C63ED107C9F70E94C10D0C9464
:10022000C6150C940000E2E10E94B8010895E9E0CF
:100230000E94B8010895EAE00E94B8010895E1E043
:100240000E94B8010895E3E00E94B8010895E7E034
:100250000E94B8010895E5E00E94B8010895E0E029
:100260000E94B8010895E2E00E94B8010895E4E018
:100270000E94B8010895ECE00E94B8010895E8E0FA
:100280000E94B8010895EEE00E94B8010895E4E1EB
:100290000E94B8010895E0E10E94B8010895E7E1E5
:1002A0000E94B8010895E6E00E94B8010895EBE0CD
:1002B0000E94B8010895EDE00E94B8010895EFE0B2
:1002C0000E94B8010895E1E10E94B8010895E3E1B8
:1002D0000E94B8010895E5E10E94B8010895E6E1A1
:1002E0000E94B801089521968A929A92AA92BA928F
:1002F000CA92DA92EA92FA920A931A932197E091BB
:100300006901F0916A010080F181E02DC083D18301
:100310000895C0916B01D0916C01E881F981C08191
:10032000D181219619910991F990E990D990C990BC
:10033000B990A99099908990219708952F903F9016
:10034000E7E6F1E0CDB7DEB7EDBFFEBF3F922F92FB
:1003500008952F903F90CDBFDEBF3F922F9208951A
:10036000E0E80E94B8010895E0E40E94B801089511
:100370002F923F924F925F926F927F922FB62F9261
:10038000CF93DF937E2EF894E0910001EF5FE0932E
:100390000001E13011F40E949E01E0E0E093790158
:1003A000E72DE07849F00E941606F0917A01F1708D
:1003B00071F00E94C9040BC0E72DEC3140F4EE0F40
:1003C000F0E0E655FD4F0190F081E02D0995F091A8
:1003D0007901EF2FE17059F0F27011F00E94730172
:1003E0008F938F2F0E9411048F910E948901209179
:1003F0000001215020930001222311F40E94A90141
:10040000DF91CF912F902FBE7F906F905F904F9094
:100410003F902F900895CF92DF92EF92FF920F932B
:100420001F93DC01EC91DB012C918E2F8370C82E81
:10043000D12CE12CF12C8E2F8F7190E0A0E0B0E058
:1004400032E0B695A795979587953A95D1F7DC0157
:10045000AB5CBC4F8C91C81AD108E108F108EC7173
:10046000422F437050E060E070E0822F8F7190E087
:10047000A0E0B0E0F2E0B695A79597958795FA953C
:10048000D1F7DC01AB5CBC4F8C91481B5109610971
:100490007109822F8C719701860103701127222721
:1004A00033270E2B4370552766277727482B81E08B
:1004B00090E0041715072607370710F080E090E05A
:1004C0001F910F91FF90EF90DF90CF9008958F9242
:1004D0009F92AF92BF92EF92FF920F931F93CF9391
:1004E000DF937C014A015B01B694A79497948794AB
:1004F0004230510561057105E0F0440F551F870139
:10050000040F151FE401CC0FDD1FCE0DDF1DB80158
:10051000CE010E940B02892B61F0F801908181814C
:10052000288139813183208398838983B501A4018F
:10053000DBCFDF91CF911F910F91FF90EF90BF9094
:10054000AF909F908F9008954F925F926F927F929D
:100550008F929F92AF92BF92CF92DF92EF92FF92D3
:100560000F931F93CF93DF9300D000D000D0CDB76F
:10057000DEB78C016A017B01DC018C91282F30E011
:1005800040E050E029833A834B835C834601570166
:10059000880C991CAA1CBB1C29813A814B815C8167
:1005A000281539054A055B0508F442C024013501C8
:1005B0003FEF431A530A630A730A89819A81AB8118
:1005C000BC8184159505A605B70580F0B201660FBC
:1005D000771F600F711FC401880F991F800F911F33
:1005E0000E940B02892B11F0530142013401660C69
:1005F000771C600E711ECC0CDD1CD801AC0DBD1D2E
:10060000BE83AD83B301CD010E940B02892B81F023
:10061000ED81FE8190818181D3012D913C911197D3
:10062000318320839C9311968C9375016401AECF26
:1006300026960FB6F894DEBF0FBECDBFDF91CF91E7
:100640001F910F91FF90EF90DF90CF90BF90AF90F0
:100650009F908F907F906F905F904F900895E4EF00
:10066000F6E040814F5F408350E060E070E0E82FAB
:10067000EE0FFF0BE45BFD4F0190F081E02D238531
:1006800030E0F901EB5CFC4F908191509083FA01CE
:10069000EE0FFF1FEC50F94F220F331F220F331FB5
:1006A0009370292B2083818384EF96E00C9467025A
:1006B000E4EFF6E040814F5F408350E060E070E09F
:1006C000E82FEE0FFF0BEE5BFD4F0190F081E02D68
:1006D0009381FA01EE0FFF1FEC50F94F9083818355
:1006E00084EF96E00C946702CF93DF93E4EFF6E09B
:1006F00080819FEF980F9083D281C38190E0880F13
:10070000991FDC01AC50B94F8D919C9193838283EA
:1007100041E050E060E070E0CF010E94A4028D2F24
:100720009C2FDF91CF91089580917101909172017A
:10073000A0917301B09174018F3F2FEF9207A20730
:10074000B20731F00497A105B10524F481E00895C2
:1007500080E0089582E00895880F990BFC01E45B26
:10076000FD4F0190F081E02D0084F185E02D309760
:10077000F9F0228121111CC021E02283DC01AE5B53
:10078000BD4F0D90BC91A02D13968C911397818332
:10079000808190E0FC01EB5CFC4F208121502083A4
:1007A000880F991F880F991F2370822B13968C93A3
:1007B0000895880F990BFC01E45BFD4F0190F081D7
:1007C000E02D0084F185E02D309761F02281213009
:1007D00049F412822181FC01EE5BFD4F0190F08112
:1007E000E02D238308958091750190917601A09169
:1007F0007701B0917801409171015091720160913F
:10080000730170917401481759076A077B0741F01B
:10081000E0916F01F091700121E024830C94580362
:100820000895CF93DF93882391F0C0916901D0910F
:100830006A01E0916D01F0916E018481833049F08D
:1008400081E08483809171010E94580302C0C0E05E
:10085000D0E0E0916F01F0917001F0936E01E093B0
:100860006D0180916B0190916C0190936A0180936E
:100870006901809175013091760120917701909105
:1008800078018093710130937201209373019093EA
:10089000740192E094830E94AC03CE01DF91CF916A
:1008A0000895809171010E94D903E0916D01F0914A
:1008B0006E018281882319F085E084830895148273
:1008C0000895CF93DF93282F220F330BF901EE5BAE
:1008D000FD4FC081D1819A81F901E45BFD4F019008
:1008E000F081E02D2485921770F4911105C095E0F8
:1008F0009C8391E090937A010E942F038A818F5FFD
:100900008A8380E001C084E0DF91CF910895E82FD1
:10091000EE0FFF0BEE5BFD4F0190F081E02D118299
:1009200010820C947B0D1F93CF93DF930E9474036E
:10093000182F892F492F092E000C550B660B770BAA
:10094000409375015093760160937701709378011D
:10095000292F220F330BF901EE5BFD4FC081D181AE
:10096000D0937001C0936F01F901E45BFD4F2081CA
:10097000318130936C0120936B019C81953019F487
:100980000E9487041B8310927A01DF91CF911F91FF
:100990000895E0917501F0917601EE0FFF1FEE5B77
:1009A000FD4F0190F081E02D9091F606838189172B
:1009B00030F40E94F3030E94930483E001C080E0BE
:1009C00080937901089581E0809379010C949304D8
:1009D000EF92FF920F931F93CF93DF93C1E001C07B
:1009E000CC0F8A95EAF784E00E94610405EA12E0E0
:1009F000D0E0F80181918F018C2319F08D2F0E9496
:100A00006104DF5FD430A9F701EA12E086E1E82E45
:100A100082E0F82ED1E0F80181918F018C2339F02A
:100A2000F70180819181FC01D6870E944F05F2E099
:100A3000EF0EF11C82E0053A180769F7DF91CF91BC
:100A40001F910F91FF90EF9008950E94FD06811174
:100A50000E941E07E0916D01F0916E0180819181ED
:100A6000892B21F0809171010E94E5080C944608C1
:100A70000E94FD0681110E941E07E0916D01F09118
:100A80006E0180819181892B21F0809171010E94FA
:100A9000E5080C942E0881E08093FC020895AF9243
:100AA000BF92CF92DF92EF92FF920F931F93CF935B
:100AB000DF93FC01A081B181AD90BC90E501AC89D0
:100AC000BD89109739F0428553856485758530E07E
:100AD00020E017C0D50155969C938E935497579656
:100AE0009C938E93569715821482138212825BC058
:100AF00012968D919C9113973A2F2B2F009779F096
:100B0000DC011A96CD90DD90ED90FC901D974C1570
:100B10005D056E057F0560F7CD01A32FB22F93838E
:100B20008283B583A483009719F0EC01FD83EC83E5
:100B3000109729F01396FC93EE93129705C0D501F8
:100B40005596FC93EE935497E501AE89BF891A96AA
:100B50008D919D910D90BC91A02D088919892A89AC
:100B60003B8980179107A207B30780F40417150784
:100B70002607370728F0481759076A077B0798F4B4
:100B8000D5015796FC93EE9356970DC004171507A1
:100B90002607370740F4481759076A077B0718F4F8
:100BA000E501FF8BEE8BDF91CF911F910F91FF90AD
:100BB000EF90DF90CF90BF90AF900895CF93DF93E9
:100BC000DC01ED91FC9111970190F081E02D848979
:100BD00095891296CD91DC911397A817B90711F456
:100BE000D58BC48B86899789A817B90711F4D78B41
:100BF000C68B209731F014968D919C9115979D830B
:100C00008C8314960D90BC91A02D109721F0139613
:100C1000DC93CE93129786899789892B21F4848956
:100C20009589978B868BDF91CF910895EF92FF92F4
:100C30000F931F93CF93DF93FC018091FC028823D5
:100C400009F4B5C084859585A685B7850196A11D53
:100C5000B11D84879587A687B787408151816281BE
:100C6000738184179507A607B70709F0A0C04089CC
:100C70005189628973894F5F5F4F6F4F7F4F8481C6
:100C80009581A681B78184179507A607B70718F441
:100C900040E050E0BA01408B518B628B738B14861D
:100CA000158616861786C689D789209709F47FC0CE
:100CB0008A859B85AC85BD85481759076A077B07E0
:100CC00009F075C0CE01DC011296ED90FC901397EF
:100CD000E114F10471F0D7011A960D911D912D9137
:100CE0003C911D97401751076207730711F4C70124
:100CF000EACF2C813D812115310529F0D9011396C8
:100D0000FC92EE921297E114F10429F0D7011596A6
:100D10003C932E93149724893589C217D30711F475
:100D2000F58AE48AE114F10419F0F78AE68A04C02E
:100D300024893589378B268B8F01FC01138212821F
:100D4000EA80FB80E881F9810280F381E02DCE0109
:100D500009954E815F816885798541155105610549
:100D6000710509F18A859B85AC85BD85840F951F2A
:100D7000A61FB71FF8014481558166817781481706
:100D800059076A077B0738F4841B950BA60BB70B32
:100D90000197A109B1098A879B87AC87BD87CE01DE
:100DA0000E944F0501C01E86E701209749F6DF919A
:100DB000CF911F910F91FF90EF900895FC018281D8
:100DC0000C9461040E94FD0680916801089580934F
:100DD00068010E94E8040E944B050C94E3040C9403
:100DE0007A0DCF93C82F0E949403811102C00E94F4
:100DF000B70D8C2FCF910C9417018091090381308E
:100E0000D9F08091010390910203A0910303B09166
:100E10000403892B8A2B8B2B79F481E04091050305
:100E2000509106036091070370910803452B462BF0
:100E3000472B19F480E0089581E00895109209038A
:100E400010920503109206031092070310920803F4
:100E500010920103109202031092030310920403F4
:100E60008091FD029091FE02A091FF02B0910003DB
:100E700080930A0390930B03A0930C03B0930D038C
:100E800008950E94BA0D80910A0390910B03A091DE
:100E90000C03B0910D030196A11DB11D80930A03AF
:100EA00090930B03A0930C03B0930D038091050363
:100EB00090910603A0910703B09108030196A11D2C
:100EC000B11D8093050390930603A0930703B0938D
:100ED000080308958091050390910603A0910703EC
:100EE000B09108030097A105B10569F140910A038B
:100EF00050910B0360910C0370910D034150510907
:100F00006109710940930A0350930B0360930C032A
:100F100070930D030197A109B10980930503909384
:100F20000603A0930703B093080380910A039091EE
:100F30000B03A0910C03B0910D03892B8A2B8B2BF3
:100F400011F40C94B80D0895809105039091060357
:100F5000A0910703B0910803892B8A2B8B2B89F46E
:100F60008091010390910203A0910303B0910403C7
:100F7000892B8A2B8B2B29F40E94BA0D81E0809358
:100F80000903089580910903882321F01092090331
:100F90000C94B80D08950E94BE0D80910A039091A3
:100FA0000B03A0910C03B0910D030196A11DB11D7F
:100FB00080930A0390930B03A0930C03B0930D034B
:100FC0008091010390910203A0910303B091040367
:100FD0000196A11DB11D8093010390930203A0937C
:100FE0000303B093040308958091010390910203D9
:100FF000A0910303B09104030097A105B10569F125
:1010000040910A0350910B0360910C0370910D0302
:10101000415051096109710940930A0350930B0330
:1010200060930C0370930D030197A109B10980939C
:10103000010390930203A0930303B09304038091F0
:101040000A0390910B03A0910C03B0910D03892B1F
:101050008A2B8B2B11F40C94BC0D08950E94FD0675
:10106000882311F083E1089580E00895CF93C82F7D
:101070000E94FD068C2F0E946104C82F80917A0186
:1010800081110E94C9048C2FCF910895CF930E94A3
:10109000FD06882311F0C3E101C0C0E0E0916D01BD
:1010A000F0916E018281815082830E94510481E01F
:1010B000809379010E9493048C2FCF910895CF9350
:1010C000C82F0E94FD06E0916D01F0916E018281B2
:1010D000815082838C2F0E946104C82F811108C027
:1010E0000E94510481E0809379010E94930407C01B
:1010F000E0916D01F0916E0182818F5F82838C2F70
:10110000CF910895CF930E94FD06882311F0C3E18B
:1011100001C0C0E0809171010E94D9030E94C904FE
:101120008091710190917201A0917301B09174014D
:10113000409175015091760160917701709178012D
:1011400084179507A607B70711F40E94AC038C2FEC
:10115000CF910895CF93DF93EC010E94FD06882381
:1011600011F083E101C080E0409171015091720162
:1011700060917301709174014430510561057105EE
:1011800014F4488303C09091F1019883DF91CF91CB
:1011900008950F931F93CF93C82F8B010E94FD06D4
:1011A000882311F083E101C080E0EC2FEE0FFF0BEC
:1011B000EE5BFD4F0190F081E02D94819370F8017A
:1011C0009083CF911F910F910895880F990BFC0187
:1011D000EE5BFD4FA081B181ED91FC9111973097AD
:1011E00069F01D921C922091F101938184812283E8
:1011F00014821382E92FF82F3097B9F70895CF930F
:10120000C82F0E94FD06882311F083E101C080E011
:10121000EC2FF0E0EE0FFF1FE456FD4FA081B181EF
:101220009091710112969C931297E0916D01F0914B
:101230006E012081318114963C932E931397B183D4
:10124000A083938111969C9311972C9193819695ED
:101250009695921770F430E0D901AB5CBC4F9C912D
:1012600091509C93220F331F220F331F9370292B11
:101270002383CF910895CF93DF93C82F0E94FD065B
:10128000882311F0D3E101C0D0E0EC2FF0E0EE0FA5
:10129000FF1FE456FD4F0190F081E02DA0916D01FC
:1012A000B0916E01818113968C9313978381948101
:1012B0008D939C93148213828091F10182830E940A
:1012C000C9048D2FDF91CF910895DC01ED91FC9140
:1012D00084819581DC01ED91FC9109941F93CF935A
:1012E000DF93182FEB010E94FD06882311F083E1A4
:1012F00001C080E0E12FF0E0EE0FFF1FEA5EFD4F3E
:101300000190F081E02D0190F081E02D0190F081BD
:10131000E02D40815181628173814C835D836E83B6
:101320007F834481558166817781488359836A83AD
:101330007B834085518562857385488759876A8795
:101340007B87DF91CF911F9108958F929F92AF92EB
:10135000BF92CF92DF92EF92FF920F931F93CF93A2
:10136000C82F8B010E94FD06882311F083E101C084
:1013700080E0EC2FF0E0EE0FFF1FEA5EFD4F0190E2
:10138000F081E02D9685913029F54285538564855D
:1013900075850190F081E02D0190F081E02DC088ED
:1013A000D188E288F3884C155D056E057F0540F411
:1013B00084809580A680B780480D591D6A1D7B1DCD
:1013C0004C195D096E097F09F801408351836283DE
:1013D000738301C085E0CF911F910F91FF90EF9033
:1013E000DF90CF90BF90AF909F908F9008958F9295
:1013F0009F92AF92BF92CF92DF92EF92FF920F93A4
:101400001F93CF93DF93D82F4A015B0168017901C5
:101410000E94FD06882311F0C3E101C0C0E0ED2F5A
:10142000F0E0EE0FFF1FEA5EFD4F0190F081E02D2E
:101430008685811130C0A081B1810D90BC91A02D15
:1014400050964D915D916D917C915397480D591D2A
:101450006A1D7B1D14968D919D910D90BC91A02DC0
:1014600084179507A607B70740F4481B590B6A0B6A
:101470007B0B415051096109710942875387648789
:101480007587C682D782E086F18681E08687CF01A4
:101490000E944F0501C0C7E08C2FDF91CF911F91B3
:1014A0000F91FF90EF90DF90CF90BF90AF909F9003
:1014B0008F9008958F929F92AF92BF92CF92DF92BA
:1014C000EF92FF920F931F93CF93DF93C82F4A01A0
:1014D0005B01680179010E94FD06882311F0D3E1C8
:1014E00001C0D0E0EC2FF0E0EE0FFF1FEA5EFD4FF1
:1014F0000190F081E02D868581110EC08286938651
:10150000A486B586C682D782E086F18681E086878A
:10151000CF010E944F0501C0D7E08D2FDF91CF9101
:101520001F910F91FF90EF90DF90CF90BF90AF9001
:101530009F908F9008950F931F93CF93DF93C82FA1
:101540000E94FD06882311F0D3E101C0D0E0EC2F0A
:10155000F0E0EE0FFF1FEA5EFD4F00811181F80100
:101560008685813031F4C8010E94DE05F8011686B7
:1015700001C0D5E08D2FDF91CF911F910F9108957C
:1015800026E040E052EC61E070E08AE493E00E94E3
:101590002B1522E04DE063E08EE093E00E9467129D
:1015A000882339F068EC70E080E090E00E94020D42
:1015B000F0CF60E08EE093E00E94D80F60E082E020
:1015C0000C940E0CCF92DF92EF92FF921F93CF9369
:1015D000DF931091A002812F0E9457016091270391
:1015E00070E0762F662780912603682B80E090E0DC
:1015F0000E94F81520E030E040E05EE30E9486168D
:101600006B017C01C0912503D0E0DC2FCC27812F1A
:101610000E945B0162EF71E08AE493E00E94521342
:101620004AE050E06D2F70E08AE493E00E94C0131E
:101630006CEF71E08AE493E00E9452136EEF71E068
:101640008AE493E00E945213C701B6010E94C915B3
:101650004AE050E08AE493E00E94C0136CEF71E02E
:101660008AE493E00E94521368E072E08AE493E017
:101670000E94521360912203709123036D577109E8
:101680004AE050E08AE493E00E94C613DF91CF91D4
:101690001F91FF90EF90DF90CF900C943F01CF937C
:1016A0002CE233E044E353E068E273E08EE093E041
:1016B0000E94A312C091A0028C2F0E94570180911A
:1016C000280390912903A0912A03B0912B038370E2
:1016D0009570A07FB87183309540A04FB84139F420
:1016E00080912F0390E090932303809322038C2F0B
:1016F0000E945B01CF910C943F01CF932CE233E029
:1017000044E353E068E273E08EE093E00E94A312AA
:10171000C091A0028C2F0E945701809128039091C4
:101720002903A0912A03B0912B0388279470A07FEE
:10173000BC7081159440A04FBC4041F480912F03B0
:101740008093260380913003809327038C2F0E947F
:101750005B01CF910C943F01CF932CE233E044E343
:1017600053E068E273E08EE093E00E94A312C09120
:10177000A0028C2F0E945701809128039091290389
:10178000A0912A03B0912B038827917FAE7FB87177
:101790008115914FAE4FB84141F480912D03809354
:1017A000240380912E03809325038C2F0E945B01DC
:1017B000CF910C943F016AE08EE093E00C945412B8
:1017C0008BEC91E00C94B0010895833081F028F403
:1017D000813099F08230A1F008958730A9F08830E7
:1017E000B9F08430D1F4809180008F7D03C0809166
:1017F00080008F7780938000089584B58F7702C032
:1018000084B58F7D84BD08958091B0008F7703C02B
:101810008091B0008F7D8093B0000895CF93DF93C7
:1018200090E0FC01EA53FF4F2491FC01E652FF4F88
:101830008491882361F190E0880F991FFC01E850A2
:10184000FF4FC591D491FC01E251FF4FA591B49196
:10185000611109C09FB7F8948881209582238883FD
:10186000EC912E230BC0623061F49FB7F89488810D
:10187000322F309583238883EC912E2B2C939FBF9E
:1018800006C08FB7F894E8812E2B28838FBFDF9195
:10189000CF9108951F93CF93DF93282F30E0F90164
:1018A000EE54FF4F8491F901EA53FF4FD491F901AF
:1018B000E652FF4FC491CC23C1F0162F81110E9434
:1018C000E50BEC2FF0E0EE0FFF1FE251FF4FA5916B
:1018D000B4919FB7F894111104C08C91D095D8237E
:1018E00002C0EC91DE2BDC939FBFDF91CF911F9163
:1018F00008951F920F920FB60F9211242F933F93CA
:101900004F935F936F937F938F939F93AF93BF9307
:10191000EF93FF938091410390914203A091430381
:10192000B09144033091400323E0230F2D3720F47E
:101930000196A11DB11D05C026E8230F0296A11D29
:10194000B11D209340038093410390934203A093E1
:101950004303B09344038091450390914603A091C3
:101960004703B09148030196A11DB11D8093450323
:1019700090934603A0934703B09348030E94E00B63
:10198000FF91EF91BF91AF919F918F917F916F9157
:101990005F914F913F912F910F900FBE0F901F902D
:1019A00018952FB7F894609141037091420380918C
:1019B0004303909144032FBF08953FB7F89480915B
:1019C000450390914603A0914703B091480326B583
:1019D000A89B05C02F3F19F00196A11DB11D3FBF67
:1019E000BA2FA92F982F8827820F911DA11DB11DF5
:1019F000BC01CD0142E0660F771F881F991F4A95F1
:101A0000D1F708958F929F92AF92BF92CF92DF92BB
:101A1000EF92FF926B017C010E94DD0C4B015C0197
:101A2000C114D104E104F10401F10E94780D0E9477
:101A3000DD0CDC01CB0188199909AA09BB09883E94
:101A40009340A105B10560F321E0C21AD108E10875
:101A5000F10888EE880E83E0981EA11CB11CC11409
:101A6000D104E104F10419F7DBCFFF90EF90DF9090
:101A7000CF90BF90AF909F908F90089584B5826073
:101A800084BD84B5816084BD85B5826085BD85B522
:101A9000816085BDEEE6F0E0808181608083E1E8D1
:101AA000F0E0108280818260808380818160808309
:101AB000E0E8F0E0808181608083E1EBF0E080810C
:101AC00084608083E0EBF0E0808181608083EAE7DE
:101AD000F0E0808184608083808182608083808167
:101AE000816080838081806880831092C100089526
:101AF0000895FFCFFFCFCF93DF93880F990BFC01A1
:101B0000E45BFD4FC081D181AC81BD8111978A8199
:101B10009B81A80FB91F2D85CD010197FD0132973B
:101B2000223019F427E331E002C023E531E02C93A1
:101B3000DC013C939E818F819083DF018E93CF01E6
:101B400007971E928A179B07E1F780E8DF01189735
:101B50008C93CF0144971E928A179B07E1F7A881C7
:101B6000B9817597ED93FC93DF91CF910895089516
:101B700078940895F894089578940895F8940895C1
:101B800008950E943E0D0E94C00D0E94E40B0E9429
:101B9000C00A809149030E94F10680E090E0089518
:101BA0008091A90280934903089508951F920F928E
:101BB0000FB60F9211242F933F934F935F936F9320
:101BC0007F938F939F93AF93BF93EF93FF93E09196
:101BD000ED01F091EE010995FF91EF91BF91AF9169
:101BE0009F918F917F916F915F914F913F912F9135
:101BF0000F900FBE0F901F9018951F920F920FB667
:101C00000F9211242F933F934F935F936F937F9382
:101C10008F939F93AF93BF93EF93FF93E091EF0167
:101C2000F091F0010995FF91EF91BF91AF919F91D4
:101C30008F917F916F915F914F913F912F910F9075
:101C40000FBE0F901F9018952091E903222399F061
:101C50004FB7F8942091E903213059F42DB3209324
:101C6000E7033DB32091E803209523232DBB4FBF0D
:101C700002C04093E7038CBD9DBD08958EBD00005A
:101C80000DB407FEFDCF8EB508958091E90388233A
:101C900061F09FB7F8942091E9038091E703213028
:101CA00019F48DBB9FBF08958FBF0895CF93DF9325
:101CB000EC0180E591E00E94240E60E08A890E9498
:101CC0004A0C80EC0E943E0E61E08A890E944A0C18
:101CD0000E94450E65E070E080E090E0DF91CF91DA
:101CE0000C94020D1F93CF93DF93EC01162F80E528
:101CF00091E00E94240E60E08A890E944A0C83E0F1
:101D00000E943E0E812F0E943E0E80E00E943E0EF9
:101D1000182F61E08A890E944A0C0E94450E812F8B
:101D2000DF91CF911F910895DF92EF92FF920F9371
:101D30001F93CF93DF938C01C62FD42EE52EF22E66
:101D400080E591E00E94240E60E0F80182890E9403
:101D50004A0C83E00E943E0E8C2F0E943E0ECD2D39
:101D6000DE2DCE018F0D911D7C01EC16FD0629F0B4
:101D700080E00E943E0E8993F8CF61E0F8018289ED
:101D80000E944A0CDF91CF911F910F91FF90EF902D
:101D9000DF900C94450E0F931F93CF93DF93EC01CC
:101DA000062F142F80E591E00E94240E60E08A89BE
:101DB0000E944A0C82E00E943E0E802F0E943E0E3E
:101DC000812F0E943E0E61E08A890E944A0CDF91B9
:101DD000CF911F910F910C94450EDF92EF92FF92DD
:101DE0000F931F93CF93DF938C01C62FD42EE52E34
:101DF000F22E80E591E00E94240E60E0F8018289D5
:101E00000E944A0C82E00E943E0E8C2F0E943E0EE1
:101E1000CD2DDE2DCE018F0D911D7C01EC16FD0622
:101E200021F089910E943E0EF9CF61E0F80182898C
:101E30000E944A0CDF91CF911F910F91FF90EF907C
:101E4000DF900C94450EFF920F931F93CF93DF9377
:101E5000EC01F62E042F122F80E591E00E94240E53
:101E600060E08A890E944A0C85E00E943E0E8F2D18
:101E70000E943E0E802F0E943E0E812F0E943E0E39
:101E800061E08A890E944A0CDF91CF911F910F91E6
:101E9000FF900C94450E1F93CF93DF93EC0180E5E8
:101EA00091E00E94240E60E08A890E944A0C80EA38
:101EB0000E943E0E80E00E943E0E182F61E08A894B
:101EC0000E944A0C0E94450E812FDF91CF911F91F5
:101ED0000895EF92FF920F931F93CF93DF93EC013E
:101EE000162F0E94D10C062FE12EF12C212F40EE4F
:101EF0006FE0CE010E94230F6EE0CE010E94720EB1
:101F0000807E90E08E159F0539F00E94D10C601BF9
:101F1000693C60F381E001C080E0DF91CF911F91C7
:101F20000F91FF90EF9008950F931F93CF93DF933E
:101F3000EC01162F6EE00E94720E807E803221F539
:101F4000103211F16BE2CE010E94720E082F007464
:101F500086FD06C020E440E46BE2CE010E94230F20
:101F600020E440E46CE2CE010E94230F60E6CE0143
:101F70000E94690F811116C0011106C020E040E4E3
:101F80006BE2CE010E94230F20E040E46CE2CE0120
:101F90000E94230F612FCE01DF91CF911F910F91EE
:101FA0000C94690F81E0DF91CF911F910F910895FB
:101FB000FC01638B0C94940FCF92DF92EF92FF920F
:101FC0000F931F93CF93DF93342F3370313009F485
:101FD0003FC008F466C0323009F0AAC0062F10E0F6
:101FE000F8013197EE30F10508F0A2C0EC5CFF4F2C
:101FF0000C941517C4E8D6EF23E987C0C4E8D6EFE0
:1020000029E883C0C3E8D5EE27E87FC0C4E8D6EF4F
:1020100025E87BC0C4E8D6EF05C0C3E8D5EE02C012
:10202000C1E8D3ED24E871C0C4E8D6EF02C0C3E82C
:10203000D5EE21E86AC0C4E8D6EF02C0C3E8D5EE09
:1020400020E863C0C1E8D1ED2AC0C0E8D0EC27C0C9
:10205000C62ED12CF6013197EE30F10508F068C09C
:10206000EE5BFF4F0C941517C4E8D6EF27E64DC082
:10207000C4E8D6EF23E549C0C3E8D5EE2EE445C059
:10208000C4E8D6EF42C0C3E8D5EE23E43EC0C3E8BF
:10209000D5EE27C0C3E8D5EE28C0C1E8DAEC20E0D1
:1020A00034C0062F10E0F8013697E930F10508F04A
:1020B0003FC0E05BFF4F0C941517C4E8D6EF29E44E
:1020C00024C0C7E8DFEF24EC20C0C4E8D6EF05C089
:1020D000C3E8D5EE02C0C1E8D3ED24E416C0C4E8DD
:1020E000D6EF21E412C0C4E8D6EF20E40EC0C2E867
:1020F000D9EDD5CFC4E8D6EF27EA07C0C7E8DFEFB0
:102100002FE303C0C1E8D3ED28E142FDCF778C0176
:10211000422F6AE20E94CB0E4D2F69E2C8010E9455
:10212000CB0E4C2F68E2C8010E94CB0E80E001C0AC
:1021300081E0DF91CF911F910F91FF90EF90DF90A1
:10214000CF9008950F931F93CF93DF9300D000D0CB
:10215000CDB7DEB7E62FF42FA901662777270C83CA
:102160001B83F13081F4342F3C71242F2370F8E06D
:102170003F9F200D112428602A8335E0569547950E
:102180003A95E1F70AC0242F2295220F207E2A8358
:1021900023E0569547952A95E1F7498324E0AE015F
:1021A0004F5F5F4F6E2F0E94ED0E0F900F900F90BC
:1021B0000F90DF91CF911F910F9108950F931F936F
:1021C000CF93DF93EC0100E010E0980141E060E282
:1021D0000E94A21000E010E0980141E064E2CE010C
:1021E0000E94A21000E010E0980141E060E0CE0102
:1021F0000E94A21000E010E0980140E064E0CE01EF
:102200000E94A21000E010E0980141E068E0CE01D9
:102210000E94A21000E010E0980140E060E1CE01D1
:102220000E94A21000E010E0980141E064E1CE01BC
:102230000E94A21000E010E0980140E068E1CE01A9
:102240000E94A21010E340E0612FCE010E94CB0E4D
:1022500060E1610F40E0CE010E94CB0E60E2610FB1
:1022600040E0CE010E94CB0E1F5F1E3361F740E0BD
:1022700060E6CE010E94CB0E40E060E7CE01DF9128
:10228000CF911F910F910C94CB0EEF92FF920F9371
:102290001F93CF93DF93EC01062FF42EE22E0E94C2
:1022A000560E80E48B8B60E8CE010E94940F182FAD
:1022B000882341F065EA71E08AE493E00E945813B4
:1022C000812F5CC06DE771E08AE493E00E945813AF
:1022D0004E2D6F2DCE010E94DC0F882339F061E670
:1022E00071E08AE493E00E94581347C064E471E00F
:1022F0008AE493E00E945813CE010E94DE1043E06E
:102300006BE2CE010E94CB0E4CE36CE0CE010E944A
:10231000CB0E40E06DE0CE010E94CB0E002351F0C9
:10232000033019F524E644E660E6CE010E94230F4F
:1023300020E607C024E044E660E6CE010E94230FB9
:1023400020E040E660E7CE010E94230F6B89CE01BA
:102350000E94940FC82F882381F062E071E08AE424
:1023600093E00E9458138C2F09C068E271E08AE460
:1023700093E00E94581381E001C080E0DF91CF918B
:102380001F910F91FF90EF900895EF92FF920F939E
:102390001F93CF93DF9300D000D0CDB7DEB77A0183
:1023A0008901FA011082F9011082118212821382CE
:1023B00024E0AE014F5F5F4F0E94940E2A81398165
:1023C000822F90E065E0959587956A95E1F7F8E0B2
:1023D0003F9F800D911D1124092E000CAA0BBB0BF1
:1023E000F80180839183A283B38323FF25C032E069
:1023F000880F991FAA1FBB1F3A95D1F72370820F30
:10240000911DA11DB11DBA2FA92F982F88272B81AF
:10241000820F911DA11DB11DBA2FA92F982F8827BA
:102420002C81820F911DA11DB11D80839183A283F8
:10243000B38381E0F70180830F900F900F900F908E
:10244000DF91CF911F910F91FF90EF9008950F931F
:102450001F93CF93DF93EC01162F9C012F5F3F4F0B
:10246000AC010E94C5116FEF610FCE010E94720E88
:10247000082F64E0610FCE010E94720E8D8303FF6E
:1024800003C091E09E8701C01E86282F2F702D83E8
:10249000AE014A5F5F4F65E0610FCE01DF91CF91E2
:1024A0001F910F910C94940ECF93DF93EC01862F24
:1024B0006A8B61E00E944A0C61E08A890E940E0CDE
:1024C0008BEE93E0998B888BDF91CF910895FF92EB
:1024D0000F931F93CF93DF93EC01162F042FF22E4F
:1024E0000E9490152F2D402F612FCE010E94451183
:1024F00091E0811101C090E0892FDF91CF911F9170
:102500000F91FF900895CF93DF93EC010E944B0F42
:1025100080FF07C061E6CE010E94271220E041E063
:1025200008C081FF0CC061E7CE010E94271220E0A5
:1025300042E06CE2CE010E94230F80E001C084E003
:10254000DF91CF910895CF92DF92EF92FF920F9398
:102550001F93CF93DF93EC016B017A0189010E94F5
:102560008312843099F18881882349F089819A8186
:10257000AB81BC81B06889839A83AB83BC838E8531
:10258000882349F089819A81AB81BC81B0648983B9
:102590009A83AB83BC8389819A81AB81BC81F6012C
:1025A00080839183A283B3838D81F7018083DE01D1
:1025B0001696F8018D8190E09F01201B310B2817A2
:1025C00039071CF48D918193F5CF80E0DF91CF9195
:1025D0001F910F91FF90EF90DF90CF900895CF92D1
:1025E000DF92EF92FF920F931F93CF93DF936C01D3
:1025F0007A018B01C0E0D0E0CE15DF0581F0D80173
:102600006D918D01D601ED91FC910190F081E02D4D
:10261000C6010995892B11F02196EECF7E01C701E5
:10262000DF91CF911F910F91FF90EF90DF90CF90AE
:1026300008956115710579F0FB0101900020E9F71B
:102640003197AF01461B570BDC01ED91FC910280E5
:10265000F381E02D099480E090E00895EF92FF92DD
:102660000F931F93CF93DF938C017B01C0E0D0E0E9
:10267000F701EC0FFD1F6491662361F0D801ED9125
:10268000FC910190F081E02DC8010995892B11F092
:102690002196EECFCE01DF91CF911F910F91FF9048
:1026A000EF9008950C9419136AED72E00C941913CD
:1026B0000F931F93CF93DF93EC010E942E138C0195
:1026C000CE010E945413800F911FDF91CF911F9173
:1026D0000F9108958F929F92AF92BF92EF92FF92C7
:1026E0000F931F93CF93DF93CDB7DEB7A1970FB6AC
:1026F000F894DEBF0FBECDBF7C01FA01CB0119A259
:10270000223008F42AE08E010F5D1F4F822E912C9B
:10271000A12CB12CBF01A50194010E94F316F9016F
:10272000CA01015011096A3014F4605D01C0695C8E
:10273000D8016C93232B242B252B61F7B801C701FB
:102740000E941913A1960FB6F894DEBF0FBECDBF3D
:10275000DF91CF911F910F91FF90EF90BF90AF90BD
:102760009F908F9008952115310541F4DC01ED9182
:10277000FC910190F081E02D642F09940C946A1370
:102780009A01AB0160E070E00C94B3130F931F93B8
:10279000CF93DF93EC010E94C0138C01CE010E9405
:1027A0005413800F911FDF91CF911F910F910895C6
:1027B0001F920F920FB60F9211242F938F939F9316
:1027C000EF93FF93E0915A03F0915B038081E091D6
:1027D0006003F091610382FD12C0908180916303D8
:1027E0008F5F8F7320916403821751F0E091630330
:1027F000F0E0E65BFC4F958F8093630301C080811E
:10280000FF91EF919F918F912F910F900FBE0F909D
:102810001F9018951F920F920FB60F9211242F93AD
:102820003F934F935F936F937F938F939F93AF9358
:10283000BF93EF93FF938AE493E00E949A14FF9171
:10284000EF91BF91AF919F918F917F916F915F9128
:102850004F913F912F910F900FBE0F901F901895A1
:10286000EAE4F3E01382128288EE93E0A0E0B0E0A5
:1028700084839583A683B7838DEE92E091838083D2
:1028800085EC90E09587848784EC90E09787868735
:1028900080EC90E0918B808B81EC90E0938B828B2D
:1028A00082EC90E0958B848B86EC90E0978B868B06
:1028B000118E128E138E148E0895FC01918D228D2F
:1028C000892F90E0805C9F4F821B91098F7399271D
:1028D0000895FC01918D828D981731F0828DE80F5B
:1028E000F11D858D90E008958FEF9FEF0895FC0115
:1028F000918D828D981761F0828DDF01A80FB11D37
:102900005D968C91928D9F5F9F73928F90E008955A
:102910008FEF9FEF0895FC01538D448D252F30E0FC
:10292000842F90E0821B930B541710F0CF960895DC
:1029300001970895FC01848DDF01A80FB11DA35AF2
:10294000BF4F2C91848D90E001968F739927848FCF
:10295000A689B7892C93A089B1898C9183708064F2
:102960008C93938D848D981306C00288F389E02D93
:1029700080818F7D80830895EF92FF920F931F9344
:10298000CF93DF93EC0181E0888F9B8D8C8D981322
:1029900005C0E889F989808185FD26C0F62E0B8D5A
:1029A00010E00F5F1F4F0F731127E02E8C8DE81280
:1029B0000CC00FB607FCFACFE889F989808185FF42
:1029C000F5CFCE010E949A14F1CF8B8DFE01E80F56
:1029D000F11DE35AFF4FF0829FB7F8940B8FEA89FD
:1029E000FB89808180620AC09FB7F894EE89FF89D5
:1029F0006083E889F98980818370806480839FBFC8
:102A000081E090E0DF91CF911F910F91FF90EF90C7
:102A10000895CF93DF93EC01888D8823C9F0EA896C
:102A2000FB89808185FD05C0A889B9898C9186FDC7
:102A30000FC00FB607FCF5CF808185FFF2CFA889C4
:102A4000B9898C9185FFEDCFCE010E949A14E7CF12
:102A5000DF91CF910895CF92DF92EF92FF921F9373
:102A6000CF93DF93EC016A017B01122FE889F9898A
:102A700082E080834115514E61057105B1F060E03F
:102A800079E08DE390E0A70196010E94F316DA0148
:102A9000C9010197A109B109B695A79597958795A1
:102AA0009C01211580E13807A8F0E889F989108296
:102AB00060E874E88EE190E0A70196010E94F316A9
:102AC000DA01C9010197A109B109B695A7959795B2
:102AD00087959C01EC85FD853083EE85FF852083FD
:102AE000188EEC89FD891083EA89FB8980818061D9
:102AF0008083EA89FB89808188608083EA89FB89F9
:102B0000808180688083EA89FB8980818F7D8083D2
:102B1000DF91CF911F91FF90EF90DF90CF900895BC
:102B2000CF93CFB7F8948091EA03811127C0E4EEE8
:102B3000F0E08491E0EDF0E09491E82FF0E0EE0F0A
:102B4000FF1FE850FF4FA591B491EC91E92321F4C8
:102B500061E08AE00E944A0C61E08AE00E940E0C6B
:102B60008CB580618CBD8CB580648CBD61E08DE0DE
:102B70000E940E0C61E08BE00E940E0C8091EA0333
:102B80008F5F8093EA03CFBFCF910895F8940C94A0
:102B90001B170E94651688F09F5798F0B92F992748
:102BA000B751B0F0E1F0660F771F881F991F1AF038
:102BB000BA95C9F714C0B13091F00E947F16B1E008
:102BC00008950C947F16672F782F8827B85F39F007
:102BD000B93FCCF3869577956795B395D9F73EF4D1
:102BE00090958095709561957F4F8F4F9F4F089579
:102BF000E89409C097FB3EF4909580957095619597
:102C00007F4F8F4F9F4F9923A9F0F92F96E9BB274C
:102C10009395F695879577956795B795F111F8CFC8
:102C2000FAF4BB0F11F460FF1BC06F5F7F4F8F4F33
:102C30009F4F16C0882311F096E911C0772321F029
:102C40009EE8872F762F05C0662371F096E8862FC1
:102C500070E060E02AF09A95660F771F881FDAF718
:102C6000880F9695879597F9089597F99F6780E85B
:102C700070E060E008959FEF80EC089500240A94CE
:102C80001616170618060906089500240A94121647
:102C90001306140605060895092E0394000C11F47A
:102CA000882352F0BB0F40F4BF2B11F460FF04C027
:102CB0006F5F7F4F8F4F9F4F089557FD9058440F80
:102CC000551F59F05F3F71F04795880F97FB991F8B
:102CD00061F09F3F79F08795089512161306140648
:102CE000551FF2CF4695F1DF08C0161617061806D5
:102CF000991FF1CF86957105610508940895E894B0
:102D0000BB2766277727CB0197F908950E9499166C
:102D10000C944C160E943E1638F00E94451620F086
:102D2000952311F00C9435160C943B1611240C9439
:102D300080160E945D1670F3959FC1F3950F50E0C9
:102D4000551F629FF001729FBB27F00DB11D639F5D
:102D5000AA27F00DB11DAA1F649F6627B00DA11D03
:102D6000661F829F2227B00DA11D621F739FB00DA9
:102D7000A11D621F839FA00D611D221F749F332719
:102D8000A00D611D231F849F600D211D822F762FB2
:102D90006A2F11249F5750409AF0F1F088234AF08F
:102DA000EE0FFF1FBB1F661F771F881F91505040FB
:102DB000A9F79E3F510580F00C9435160C948016AF
:102DC0005F3FE4F3983ED4F3869577956795B79582
:102DD000F795E7959F5FC1F7FE2B880F911D96959C
:102DE000879597F90895A1E21A2EAA1BBB1BFD0136
:102DF0000DC0AA1FBB1FEE1FFF1FA217B307E407DA
:102E0000F50720F0A21BB30BE40BF50B661F771F31
:102E1000881F991F1A9469F7609570958095909511
:102E20009B01AC01BD01CF010895EE0FFF1F05907E
:0A2E3000F491E02D0994F894FFCF0F
:102E3A000000000000000000000000000000000088
:102E4A000000000000000000000000000000000078
:102E5A000000000000000000000000000000000068
:102E6A000000000000000000000000000000000058
:102E7A000000000000000000000000000000000048
:102E8A000000000000000000000000000000000038
:102E9A000000000000000000FF00008E0200003B5E
:102EAA0003FFFFFFFFFFFFFFFF00001E02000000FD
:102EBA000090010000B00400000227020000000098
:102ECA0064000000E8030000023002000000005A1B
:102EDA0000000008020000023902000000006E0033
:102EEA000000F401000002000000040000000004D9
:102EFA00000000000300000000020001000000FFC3
:102F0A00FF000001000000000000000000000000B7
:102F1A000000000500FF00000100FF0000D50DD5EC
:102F2A000DFF56656C6F636974793A002C00526F15
:102F3A00746174696F6E3A004D6172636861204111
:102F4A007475616C3A00A80199018A017B01CB0171
:102F5A0065092402DE0603CB0165092D02DE06029D
:102F6A00CB0165093602DE0601CB0165093F02DEA7
:102F7A000600C601C101BC01B7013B03800272020F
:102F8A00640256028E02EE04EC030001E20A00001B
:102F9A0003040100F005F4050001AC0B0000020473
:102FAA000100F205F00400017D0B0000010301009D
:102FBA00EC04540700014F0B000000020100020755
:102FCA0004075000790D000004000100E801E30144
:102FDA0000010101010000000000F407C207CB074D
:102FEA00A4073805410725056A074608E706EF06DC
:102FFA00FF0836083B095F086E09AA08A509E20618
:10300A00F70982085A0A9B0AC9080D0A006E616EFE
:10301A0000696E66006F76660000000000BC14EF5F
:0C302A00128B1409155D14771469140052
:00000001FF
