:100000000C94E9000C94300D0C94570D0C941101D4
:100010000C9411010C9411010C9411010C94110118
:100020000C9411010C9411010C9411010C94110108
:100030000C9411010C9411010C9411010C941101F8
:100040000C94D30B0C9411010C94FC130C942E14EF
:100050000C9411010C9411010C9411010C941101D8
:100060000C9411010C9411017F0FFF0E030F070F69
:100070000B0F0F0F120F150F190F1C0F200F230F4F
:10008000270F2A0F830F390F3D0F9D0F410F620F6E
:10009000450F6A0F6D0F480F740F4C0F4F0F520F23
:1000A000870F620F660F6A0F6D0F700F740F780F56
:1000B0007C0F00000008000201000003040700009C
:1000C000000000000000010204081020408001022E
:1000D000040810200102040810200404040404048D
:1000E00004040202020202020303030303030000EA
:1000F0000000250028002B0000000000240027003D
:100100002A0052657475726E696E6720746F205094
:10011000726576696F7573204D6F646520466169FD
:100120006C7572652E2E2E006053657474696E674F
:10013000204944204D6F6465204661696C75726585
:100140002E2E2E0053657474696E672042617564AB
:1001500072617465205375636365737366756C2192
:100160000053657474696E672042617564726174CE
:1001700065204661696C7572652E2E2E00456E7481
:100180006572696E6720436F6E6669677572617428
:10019000696F6E204D6F646520537563636573737B
:1001A00066756C2100456E746572696E6720436FD9
:1001B0006E66696775726174696F6E204D6F6465F4
:1001C000204661696C7572652E2E2E00070B2A0D74
:1001D000541411241FBECFEFD8E0DEBFCDBF13E013
:1001E000A0E0B1E0E2E6FCE202C005900D92A83387
:1001F000B107D9F726E0A8E3B3E001C01D92A43708
:10020000B207E1F710E0C9EED0E004C02197FE018B
:100210000E940F16C63ED107C9F70E941B0D0C9411
:10022000EA150C940000E2E10E94B8010895E9E0AB
:100230000E94B8010895EAE00E94B8010895E1E043
:100240000E94B8010895E3E00E94B8010895E7E034
:100250000E94B8010895E5E00E94B8010895E0E029
:100260000E94B8010895E2E00E94B8010895E4E018
:100270000E94B8010895ECE00E94B8010895E8E0FA
:100280000E94B8010895EEE00E94B8010895E4E1EB
:100290000E94B8010895E0E10E94B8010895E7E1E5
:1002A0000E94B8010895E6E00E94B8010895EBE0CD
:1002B0000E94B8010895EDE00E94B8010895EFE0B2
:1002C0000E94B8010895E1E10E94B8010895E3E1B8
:1002D0000E94B8010895E5E10E94B8010895E6E1A1
:1002E0000E94B801089521968A929A92AA92BA928F
:1002F000CA92DA92EA92FA920A931A932197E091BB
:100300007201F09173010080F181E02DC083D183EF
:100310000895C0917401D0917501E881F981C0817F
:10032000D181219619910991F990E990D990C990BC
:10033000B990A99099908990219708952F903F9016
:10034000E7E6F1E0CDB7DEB7EDBFFEBF3F922F92FB
:1003500008952F903F90CDBFDEBF3F922F9208951A
:10036000E0E80E94B8010895E0E40E94B801089511
:100370002F923F924F925F926F927F922FB62F9261
:10038000CF93DF937E2EF894E0910001EF5FE0932E
:100390000001E13011F40E949E01E0E0E09382014F
:1003A000E72DE07849F00E940706F0918301F17093
:1003B00071F00E94BF040BC0E72DEC3140F4EE0F4A
:1003C000F0E0EA51FD4F0190F081E02D0995F091A8
:1003D0008201EF2FE17059F0F27011F00E94730169
:1003E0008F938F2F0E9407048F910E948901209183
:1003F0000001215020930001222311F40E94A90141
:10040000DF91CF912F902FBE7F906F905F904F9094
:100410003F902F900895CF92DF92EF92FF920F932B
:100420001F93DC01EC91DB012C918E2F8170C82E83
:10043000D12CE12CF12C8E2F8F7090E0A0E0B0E059
:10044000B695A79597958795DC01A25ABC4F8C91DC
:10045000C81AD108E108F108EE70422F417050E04F
:1004600060E070E0822F8F7090E0A0E0B0E0B69581
:10047000A79597958795DC01A25ABC4F8C91481B94
:10048000510961097109822F8E70970186010170EF
:100490001127222733270E2B4170552766277727F0
:1004A000482B81E090E0041715072607370710F066
:1004B00080E090E01F910F91FF90EF90DF90CF9040
:1004C00008958F929F92AF92BF92EF92FF920F93F7
:1004D0001F93CF93DF937C014A015B01B694A794ED
:1004E000979487944230510561057105E0F0440FFF
:1004F000551F8701040F151FE401CC0FDD1FCE0D22
:10050000DF1DB801CE010E940B02892B61F0F801BA
:1005100090818181288139813183208398838983E7
:10052000B501A401DBCFDF91CF911F910F91FF9017
:10053000EF90BF90AF909F908F9008954F925F92F1
:100540006F927F928F929F92AF92BF92CF92DF92E3
:10055000EF92FF920F931F93CF93DF9300D000D0C1
:1005600000D0CDB7DEB78C016A017B01DC018C9134
:10057000282F30E040E050E029833A834B835C83AE
:1005800046015701880C991CAA1CBB1C29813A8181
:100590004B815C81281539054A055B0508F442C08A
:1005A000240135013FEF431A530A630A730A898114
:1005B0009A81AB81BC8184159505A605B70580F0AD
:1005C000B201660F771F600F711FC401880F991F5A
:1005D000800F911F0E940B02892B11F053014201E1
:1005E0003401660C771C600E711ECC0CDD1CD8012A
:1005F000AC0DBD1DBE83AD83B301CD010E940B02C6
:10060000892B81F0ED81FE8190818181D3012D9133
:100610003C911197318320839C9311968C937501A3
:100620006401AECF26960FB6F894DEBF0FBECDBFE5
:10063000DF91CF911F910F91FF90EF90DF90CF90BE
:10064000BF90AF909F908F907F906F905F904F90F2
:100650000895E8E1F5E040814F5F408350E060E0BD
:1006600070E0E82FEE0FFF0BE455FD4F0190F08195
:10067000E02D238530E0F901E25AFC4F9081915042
:100680009083FA01EE0FFF1FE85EFA4F220F331F2F
:100690009170292B2083818388E195E00C9461027D
:1006A000E8E1F5E040814F5F408350E060E070E0BA
:1006B000E82FEE0FFF0BEA55FD4F0190F081E02D82
:1006C0009381FA01EE0FFF1FE85EFA4F908381835A
:1006D00088E195E00C946102CF93DF93E8E1F5E0C7
:1006E00080819FEF980F9083D281C38190E0880F23
:1006F000991FDC01A85EBA4F8D919C9193838283F0
:1007000041E050E060E070E0CF010E949E028D2F3A
:100710009C2FDF91CF91089580917A0190917B0178
:10072000A0917C01B0917D018F3F2FEF9207A2072E
:10073000B20731F00297A105B10524F481E00895D4
:1007400080E0089582E00895880F990BFC01E4553C
:10075000FD4F0190F081E02D0084F185E02D309770
:10076000E9F0228121111AC021E02283DC01AA557F
:10077000BD4F0D90BC91A02D13968C911397818342
:10078000808190E0FC01E25AFC4F208121502083BF
:10079000880F991F2170822B13968C930895880FD0
:1007A000990BFC01E455FD4F0190F081E02D008490
:1007B000F185E02D309761F02281213049F41282D9
:1007C0002181FC01EA55FD4F0190F081E02D23834A
:1007D000089580917E0190917F01A0918001B09158
:1007E000810140917A0150917B0160917C0170916F
:1007F0007D01481759076A077B0741F0E0917801AE
:10080000F091790121E024830C9450030895CF9353
:10081000DF93882391F0C0917201D0917301E09130
:100820007601F09177018481833049F081E08483FF
:1008300080917A010E94500302C0C0E0D0E0E091B4
:100840007801F0917901F0937701E093760180913E
:10085000740190917501909373018093720180915E
:100860007E0130917F0120918001909181018093E0
:100870007A0130937B0120937C0190937D0192E07B
:1008800094830E94A403CE01DF91CF9108958091BB
:100890007A010E94CF03E0917601F0917701828185
:1008A000882319F085E08483089514820895CF93F6
:1008B000DF93282F220F330BF901EA55FD4FC0813A
:1008C000D1819A81F901E455FD4F0190F081E02D2D
:1008D0002485921770F4911105C095E09C8391E0F6
:1008E000909383010E9429038A818F5F8A8380E02D
:1008F00001C084E0DF91CF910895E82FEE0FFF0B48
:10090000EA55FD4F0190F081E02D118210820C9488
:10091000D50C1F93CF93DF930E946C03182F892F60
:10092000492F092E000C550B660B770B40937E0167
:1009300050937F016093800170938101292F220FD2
:10094000330BF901EA55FD4FC081D181D093790174
:10095000C0937801F901E455FD4F20813181309336
:100960007501209374019C81953019F40E947D04D7
:100970001B8310928301DF91CF911F910895E09125
:100980007E01F0917F01EE0FFF1FEA55FD4F0190B0
:10099000F081E02D90911A058381891730F40E942F
:1009A000E9030E94890483E001C080E08093820112
:1009B000089581E0809382010C948904CF93DF93A2
:1009C000C1E0D0E001C0CC0F8A95EAF782E00E9436
:1009D00057048091E3028C2319F080E00E945704B1
:1009E0008091E4028C2319F081E00E9457048091E9
:1009F000E1028C2349F0809190029091910221E0D4
:100A0000FC0126870E9440058091E202C82359F02C
:100A1000809192029091930221E0FC012687DF9160
:100A2000CF910C944005DF91CF9108950E94EE067E
:100A300081110E940F07E0917601F091770180818A
:100A40009181892B21F080917A010E94D6080C9423
:100A500037080E94EE0681110E940F07E09176018F
:100A6000F091770180819181892B21F080917A0129
:100A70000E94D6080C941F0881E0809338030895E3
:100A8000AF92BF92CF92DF92EF92FF920F931F939C
:100A9000CF93DF93FC01A081B181AD90BC90E501C3
:100AA000AC89BD89109739F0428553856485758579
:100AB00030E020E017C0D50155969C938E93549753
:100AC00057969C938E9356971582148213821282A6
:100AD0005BC012968D919C9113973A2F2B2F009704
:100AE00079F0DC011A96CD90DD90ED90FC901D9789
:100AF0004C155D056E057F0560F7CD01A32FB22F64
:100B000093838283B583A483009719F0EC01FD835E
:100B1000EC83109729F01396FC93EE93129705C07F
:100B2000D5015596FC93EE935497E501AE89BF89A4
:100B30001A968D919D910D90BC91A02D08891989CF
:100B40002A893B8980179107A207B30780F404170D
:100B500015072607370728F0481759076A077B0744
:100B600098F4D5015796FC93EE9356970DC0041751
:100B700015072607370740F4481759076A077B0708
:100B800018F4E501FF8BEE8BDF91CF911F910F9150
:100B9000FF90EF90DF90CF90BF90AF900895CF93EC
:100BA000DF93DC01ED91FC9111970190F081E02D34
:100BB000848995891296CD91DC911397A817B9076E
:100BC00011F4D58BC48B86899789A817B90711F4BE
:100BD000D78BC68B209731F014968D919C911597E9
:100BE0009D838C8314960D90BC91A02D109721F0BD
:100BF0001396DC93CE93129786899789892B21F4DB
:100C000084899589978B868BDF91CF910895EF9298
:100C1000FF920F931F93CF93DF93FC0180913803D2
:100C2000882309F4B5C084859585A685B785019686
:100C3000A11DB11D84879587A687B7874081518103
:100C40006281738184179507A607B70709F0A0C0D2
:100C500040895189628973894F5F5F4F6F4F7F4F22
:100C600084819581A681B78184179507A607B70768
:100C700018F440E050E0BA01408B518B628B738BCB
:100C80001486158616861786C689D789209709F493
:100C90007FC08A859B85AC85BD85481759076A0743
:100CA0007B0709F075C0CE01DC011296ED90FC9037
:100CB0001397E114F10471F0D7011A960D911D916B
:100CC0002D913C911D97401751076207730711F44E
:100CD000C701EACF2C813D812115310529F0D901C9
:100CE0001396FC92EE921297E114F10429F0D701C9
:100CF00015963C932E93149724893589C217D307F0
:100D000011F4F58AE48AE114F10419F0F78AE68A0D
:100D100004C024893589378B268B8F01FC0113820F
:100D20001282EA80FB80E881F9810280F381E02D64
:100D3000CE0109954E815F81688579854115510500
:100D40006105710509F18A859B85AC85BD85840F98
:100D5000951FA61FB71FF8014481558166817781D1
:100D6000481759076A077B0738F4841B950BA60BB5
:100D7000B70B0197A109B1098A879B87AC87BD870B
:100D8000CE010E94400501C01E86E701209749F66A
:100D9000DF91CF911F910F91FF90EF900895FC018B
:100DA00082810C9457040E94EE0680916801089598
:100DB000809368010E94DE040E943C050C94D904D3
:100DC0000C94D40CCF93C82F0E948C03811102C0C5
:100DD0000E94110D8C2FCF910C9417018091450327
:100DE0008130D9F080913D0390913E03A0913F0363
:100DF000B0914003892B8A2B8B2B79F481E04091B1
:100E00004103509142036091430370914403452B89
:100E1000462B472B19F480E0089581E00895109245
:100E20004503109241031092420310924303109223
:100E3000440310923D0310923E0310923F03109220
:100E400040038091390390913A03A0913B03B09104
:100E50003C038093460390934703A0934803B093C9
:100E6000490308950E94140D809146039091470311
:100E7000A0914803B09149030196A11DB11D809333
:100E8000460390934703A0934803B093490380918E
:100E9000410390914203A0914303B0914403019612
:100EA000A11DB11D8093410390934203A09343037E
:100EB000B093440308958091410390914203A0911F
:100EC0004303B09144030097A105B10569F1409136
:100ED0004603509147036091480370914903415084
:100EE0005109610971094093460350934703609388
:100EF0004803709349030197A109B1098093410305
:100F000090934203A0934303B0934403809146031C
:100F100090914703A0914803B0914903892B8A2BF4
:100F20008B2B11F40C94120D089580914103909134
:100F30004203A0914303B0914403892B8A2B8B2B4E
:100F400089F480913D0390913E03A0913F03B091BD
:100F50004003892B8A2B8B2B29F40E94140D81E0EE
:100F600080934503089580914503882321F01092D2
:100F700045030C94120D08950E94180D80914603AC
:100F800090914703A0914803B09149030196A11D98
:100F9000B11D8093460390934703A0934803B093F9
:100FA000490380913D0390913E03A0913F03B0918E
:100FB00040030196A11DB11D80933D0390933E0314
:100FC000A0933F03B0934003089580913D03909117
:100FD0003E03A0913F03B09140030097A105B105E6
:100FE00069F1409146035091470360914803709125
:100FF00049034150510961097109409346035093D7
:10100000470360934803709349030197A109B1090D
:1010100080933D0390933E03A0933F03B09340031E
:101020008091460390914703A0914803B0914903F2
:10103000892B8A2B8B2B11F40C94160D08950E948A
:10104000EE06882311F083E1089580E00895CF93A0
:10105000C82F0E94EE068C2F0E945704C82F809143
:10106000830181110E94BF048C2FCF910895CF93EB
:101070000E94EE06882311F0C3E101C0C0E0E091B8
:101080007601F09177018281815082830E9447042A
:1010900081E0809382010E9489048C2FCF91089572
:1010A000CF93C82F0E94EE06E0917601F091770170
:1010B0008281815082838C2F0E945704C82F811116
:1010C00008C00E94470481E0809382010E94890445
:1010D00007C0E0917601F091770182818F5F828372
:1010E0008C2FCF910895CF930E94EE06882311F0A4
:1010F000C3E101C0C0E080917A010E94CF030E9449
:10110000BF0480917A0190917B01A0917C01B09104
:101110007D0140917E0150917F016091800170912D
:10112000810184179507A607B70711F40E94A4034D
:101130008C2FCF910895CF93DF93EC010E94EE06A0
:10114000882311F083E101C080E040917A01509141
:101150007B0160917C0170917D01423051056105F8
:10116000710514F4488303C09091D5019883DF91F1
:10117000CF9108950F931F93CF93C82F8B010E9497
:10118000EE06882311F083E101C080E0EC2FEE0F22
:10119000FF0BEA55FD4F0190F081E02D9481937093
:1011A000F8019083CF911F910F910895880F990BAB
:1011B000FC01EA55FD4FA081B181ED91FC911197A1
:1011C000309769F01D921C922091D5019381848102
:1011D000228314821382E92FF82F3097B9F70895EC
:1011E000CF93C82F0E94EE06882311F083E101C03F
:1011F00080E0EC2FF0E0EE0FFF1FE452FD4FA081E6
:10120000B18190917A0112969C931297E0917601A8
:10121000F09177012081318114963C932E9313979E
:10122000B183A083938111969C9311972C91938104
:101230009695921760F430E0D901A25ABC4F9C9168
:1012400091509C93220F331F9170292B2383CF91B0
:101250000895CF93DF93C82F0E94EE06882311F0E4
:10126000D3E101C0D0E0EC2FF0E0EE0FFF1FE4521D
:10127000FD4F0190F081E02DA0917601B0917701B2
:10128000818113968C931397838194818D939C9382
:10129000148213828091D50182830E94BF048D2F16
:1012A000DF91CF910895DC01ED91FC9184819581CE
:1012B000DC01ED91FC9109941F93CF93DF93182FDC
:1012C000EB010E94EE06882311F083E101C080E06B
:1012D000E12FF0E0EE0FFF1FE057FD4F0190F0818E
:1012E000E02D0190F081E02D0190F081E02D408112
:1012F0005181628173814C835D836E837F834481DE
:10130000558166817781488359836A837B834085D1
:10131000518562857385488759876A877B87DF9106
:10132000CF911F9108958F929F92AF92BF92CF92CB
:10133000DF92EF92FF920F931F93CF93C82F8B01F1
:101340000E94EE06882311F083E101C080E0EC2FBB
:10135000F0E0EE0FFF1FE057FD4F0190F081E02D10
:101360009685913029F54285538564857585019070
:10137000F081E02D0190F081E02DC088D188E288D5
:10138000F3884C155D056E057F0540F484809580DB
:10139000A680B780480D591D6A1D7B1D4C195D093B
:1013A0006E097F09F801408351836283738301C012
:1013B00085E0CF911F910F91FF90EF90DF90CF903C
:1013C000BF90AF909F908F9008958F929F92AF9211
:1013D000BF92CF92DF92EF92FF920F931F93CF9322
:1013E000DF93D82F4A015B01680179010E94EE0664
:1013F000882311F0C3E101C0C0E0ED2FF0E0EE0F53
:10140000FF1FE057FD4F0190F081E02D868581118F
:1014100030C0A081B1810D90BC91A02D50964D910E
:101420005D916D917C915397480D591D6A1D7B1DEF
:1014300014968D919D910D90BC91A02D84179507C8
:10144000A607B70740F4481B590B6A0B7B0B4150AA
:101450005109610971094287538764877587C6827C
:10146000D782E086F18681E08687CF010E94400521
:1014700001C0C7E08C2FDF91CF911F910F91FF909A
:10148000EF90DF90CF90BF90AF909F908F90089596
:101490008F929F92AF92BF92CF92DF92EF92FF9284
:1014A0000F931F93CF93DF93C82F4A015B0168010D
:1014B00079010E94EE06882311F0D3E101C0D0E04B
:1014C000EC2FF0E0EE0FFF1FE057FD4F0190F08191
:1014D000E02D868581110EC082869386A486B5860E
:1014E000C682D782E086F18681E08687CF010E949E
:1014F000400501C0D7E08D2FDF91CF911F910F9153
:10150000FF90EF90DF90CF90BF90AF909F908F9023
:1015100008950F931F93CF93DF93C82F0E94EE0679
:10152000882311F0D3E101C0D0E0EC2FF0E0EE0F02
:10153000FF1FE057FD4F00811181F8018685813042
:1015400031F4C8010E94CF05F801168601C0D5E02C
:101550008D2FDF91CF911F910F91089526E040E0EC
:1015600052EC61E070E082E793E00E944F1522E0C8
:101570004DE063E08AE493E00E948911882339F00A
:1015800068EC70E080E090E00E945C0CF0CF66EDCB
:1015900071E082E793E00E94A31260E08AE493E0A6
:1015A0000C94DD0EEF92FF920F93CF93C091E00267
:1015B0008C2F0E94570180916901835880936D019F
:1015C0008C2F0E945B018AE6E82E81E0F82E08E06D
:1015D00021E043E055E060EF78E18AE493E00E9487
:1015E0000D12811103C061E072E007C0873019F469
:1015F0006FE272E002C06DE472E082E793E00E9465
:10160000A312CF910F91FF90EF900C943F016AE0ED
:101610008AE493E00C947611CF93C091E0028C2F72
:101620000E94570182E793E00E9481141816190660
:10163000F4F441E060E070E082E793E00E949413EC
:10164000609369018C2F0E945B0182E793E00E9406
:101650009B1469E672E082E793E00E948B124AE0F5
:1016600050E06091690182E793E00E941213CF91EC
:101670000C943F018CEA91E00C94B0010895833002
:1016800081F028F4813099F08230A1F008958730FC
:10169000A9F08830B9F08430D1F4809180008F7D3A
:1016A00003C0809180008F7780938000089584B577
:1016B0008F7702C084B58F7D84BD08958091B0007E
:1016C0008F7703C08091B0008F7D8093B000089524
:1016D000CF93DF9390E0FC01EA53FF4F2491FC018C
:1016E000E652FF4F8491882361F190E0880F991FA3
:1016F000FC01E850FF4FC591D491FC01E251FF4F2E
:10170000A591B491611109C09FB7F8948881209583
:1017100082238883EC912E230BC0623061F49FB743
:10172000F8948881322F309583238883EC912E2B77
:101730002C939FBF06C08FB7F894E8812E2B288387
:101740008FBFDF91CF9108951F93CF93DF93282F01
:1017500030E0F901EE54FF4F8491F901EA53FF4F55
:10176000D491F901E652FF4FC491CC23C1F0162F5A
:1017700081110E943F0BEC2FF0E0EE0FFF1FE251B2
:10178000FF4FA591B4919FB7F894111104C08C91AB
:10179000D095D82302C0EC91DE2BDC939FBFDF9164
:1017A000CF911F9108951F920F920FB60F9211249F
:1017B0002F933F934F935F936F937F938F939F9359
:1017C000AF93BF93EF93FF938091690390916A0366
:1017D000A0916B03B0916C033091680323E0230F59
:1017E0002D3720F40196A11DB11D05C026E8230F59
:1017F0000296A11DB11D2093680380936903909305
:101800006A03A0936B03B0936C0380916D03909176
:101810006E03A0916F03B09170030196A11DB11DDD
:1018200080936D0390936E03A0936F03B093700346
:101830000E943A0BFF91EF91BF91AF919F918F91D1
:101840007F916F915F914F913F912F910F900FBEBC
:101850000F901F9018952FB7F894609169037091BD
:101860006A0380916B0390916C032FBF08953FB77B
:10187000F89480916D0390916E03A0916F03B091E5
:10188000700326B5A89B05C02F3F19F00196A11D36
:10189000B11D3FBFBA2FA92F982F8827820F911D06
:1018A000A11DB11DBC01CD0142E0660F771F881F4D
:1018B000991F4A95D1F708958F929F92AF92BF9248
:1018C000CF92DF92EF92FF926B017C010E94370C66
:1018D0004B015C01C114D104E104F10401F10E9447
:1018E000D20C0E94370CDC01CB0188199909AA0996
:1018F000BB09883E9340A105B10560F321E0C21AFF
:10190000D108E108F10888EE880E83E0981EA11C3A
:10191000B11CC114D104E104F10419F7DBCFFF902D
:10192000EF90DF90CF90BF90AF909F908F900895F1
:1019300084B5826084BD84B5816084BD85B58260D4
:1019400085BD85B5816085BDEEE6F0E08081816072
:101950008083E1E8F0E01082808182608083808172
:1019600081608083E0E8F0E0808181608083E1EB4A
:10197000F0E0808184608083E0EBF0E08081816032
:101980008083EAE7F0E080818460808380818260E8
:1019900080838081816080838081806880831092D1
:1019A000C10008950895FFCFFFCFCF93DF93880F35
:1019B000990BFC01E455FD4FC081D181AC81BD8103
:1019C00011978A819B81A80FB91F2D85CD010197A1
:1019D000FD013297223019F427E331E002C023E5FC
:1019E00031E02C93DC013C939E818F819083DF0159
:1019F0008E93CF0107971E928A179B07E1F780E825
:101A0000DF0118978C93CF0144971E928A179B078A
:101A1000E1F7A881B9817597ED93FC93DF91CF91A0
:101A20000895089578940895F89408957894089501
:101A3000F894089508950E94980C0E941A0D0E942F
:101A40003E0B0E94AE0A809171030E94E20680E084
:101A500090E008958091E5028093710308950895C0
:101A60001F920F920FB60F9211242F933F934F9313
:101A70005F936F937F938F939F93AF93BF93EF93F6
:101A8000FF93E091CE01F091CF010995FF91EF9185
:101A9000BF91AF919F918F917F916F915F914F9186
:101AA0003F912F910F900FBE0F901F9018951F928E
:101AB0000F920FB60F9211242F933F934F935F9382
:101AC0006F937F938F939F93AF93BF93EF93FF9306
:101AD000E091D001F091D1010995FF91EF91BF9173
:101AE000AF919F918F917F916F915F914F913F91B6
:101AF0002F910F900FBE0F901F90189520911104F9
:101B0000222399F04FB7F89420911104213059F411
:101B10002DB320930F043DB320911004209523236F
:101B20002DBB4FBF02C040930F048CBD9DBD0895D7
:101B30008EBD00000DB407FEFDCF8EB508958091D7
:101B40001104882361F09FB7F894209111048091CB
:101B50000F04213019F48DBB9FBF08958FBF0895E6
:101B6000CF93DF93EC0180E591E00E947E0D60E071
:101B70008A890E94A40B80EC0E94980D61E08A89FA
:101B80000E94A40B0E949F0D65E070E080E090E051
:101B9000DF91CF910C945C0C1F93CF93DF93EC01FA
:101BA000162F80E591E00E947E0D60E08A890E94F8
:101BB000A40B83E00E94980D812F0E94980D80E075
:101BC0000E94980D182F61E08A890E94A40B0E9440
:101BD0009F0D812FDF91CF911F9108950F931F9338
:101BE000CF93DF93EC01062F142F80E591E00E9444
:101BF0007E0D60E08A890E94A40B82E00E94980D0D
:101C0000802F0E94980D812F0E94980D61E08A8993
:101C10000E94A40BDF91CF911F910F910C949F0D07
:101C2000DF92EF92FF920F931F93CF93DF938C017C
:101C3000C62FD42EE52EF22E80E591E00E947E0D77
:101C400060E0F80182890E94A40B82E00E94980D56
:101C50008C2F0E94980DCD2DDE2DCE018F0D911D64
:101C60007C01EC16FD0621F089910E94980DF9CFB8
:101C700061E0F80182890E94A40BDF91CF911F914E
:101C80000F91FF90EF90DF900C949F0DFF920F93B8
:101C90001F93CF93DF93EC01F62E042F122F80E5D4
:101CA00091E00E947E0D60E08A890E94A40B85E08D
:101CB0000E94980D8F2D0E94980D802F0E94980DE4
:101CC000812F0E94980D61E08A890E94A40BDF9108
:101CD000CF911F910F91FF900C949F0DEF92FF9267
:101CE0000F931F93CF93DF93EC01162F0E942B0CC1
:101CF000062FE12EF12C212F40EE6FE0CE010E9445
:101D0000460E6EE0CE010E94CC0D807E90E08E15D6
:101D10009F0539F00E942B0C601B693C60F381E049
:101D200001C080E0DF91CF911F910F91FF90EF9064
:101D300008950F931F93CF93DF93EC01162F6EE05E
:101D40000E94CC0D807E803221F5103211F16BE2C1
:101D5000CE010E94CC0D082F007486FD06C020E441
:101D600040E46BE2CE010E94460E20E440E46CE2C7
:101D7000CE010E94460E60E6CE010E946E0E8111D9
:101D800016C0011106C020E040E46BE2CE010E94C3
:101D9000460E20E040E46CE2CE010E94460E612F28
:101DA000CE01DF91CF911F910F910C946E0E81E0C7
:101DB000DF91CF911F910F910895FC01638B0C94DB
:101DC000990ECF92DF92EF92FF920F931F93CF93D2
:101DD000DF93342F3370313009F43FC008F466C00C
:101DE000323009F0AAC0062F10E0F8013197EE302A
:101DF000F10508F0A2C0EC5CFF4F0C940F16C4E88C
:101E0000D6EF23E987C0C4E8D6EF29E883C0C3E84A
:101E1000D5EE27E87FC0C4E8D6EF25E87BC0C4E84C
:101E2000D6EF05C0C3E8D5EE02C0C1E8D3ED24E883
:101E300071C0C4E8D6EF02C0C3E8D5EE21E86AC09D
:101E4000C4E8D6EF02C0C3E8D5EE20E863C0C1E81D
:101E5000D1ED2AC0C0E8D0EC27C0C62ED12CF601A7
:101E60003197EE30F10508F068C0EE5BFF4F0C943F
:101E70000F16C4E8D6EF27E64DC0C4E8D6EF23E539
:101E800049C0C3E8D5EE2EE445C0C4E8D6EF42C051
:101E9000C3E8D5EE23E43EC0C3E8D5EE27C0C3E8CF
:101EA000D5EE28C0C1E8DAEC20E034C0062F10E0FF
:101EB000F8013697E930F10508F03FC0E05BFF4FCD
:101EC0000C940F16C4E8D6EF29E424C0C7E8DFEF6E
:101ED00024EC20C0C4E8D6EF05C0C3E8D5EE02C0AC
:101EE000C1E8D3ED24E416C0C4E8D6EF21E412C063
:101EF000C4E8D6EF20E40EC0C2E8D9EDD5CFC4E8DF
:101F0000D6EF27EA07C0C7E8DFEF2FE303C0C1E839
:101F1000D3ED28E142FDCF778C01422F6AE20E9487
:101F2000EE0D4D2F69E2C8010E94EE0D4C2F68E2C4
:101F3000C8010E94EE0D80E001C081E0DF91CF91E9
:101F40001F910F91FF90EF90DF90CF9008950F9326
:101F50001F93CF93DF9300D000D0CDB7DEB74130D1
:101F6000B1F40C831B83890122273327502F5C7126
:101F7000402F437078E0579F400D112448604A83FA
:101F800055E0169507955A95E1F709830DC0A8010C
:101F900023E0569547952A95E1F749830295000F6E
:101FA000007E0A831C821B8224E0AE014F5F5F4FDC
:101FB0000E94100E0F900F900F900F90DF91CF9115
:101FC0001F910F9108950F931F93CF93DF9300D02C
:101FD00000D0CDB7DEB7E62FF42FA901662777270B
:101FE0000C831B83F13081F4342F3C71242F237038
:101FF000F8E03F9F200D112428602A8335E0569594
:1020000047953A95E1F70AC0242F2295220F207EAA
:102010002A8323E0569547952A95E1F7498324E0E2
:10202000AE014F5F5F4F6E2F0E94100E0F900F900A
:102030000F900F90DF91CF911F910F9108950F9303
:102040001F93CF93DF93EC0100E010E0980141E093
:1020500060E20E94E30F00E010E0980141E064E2DA
:10206000CE010E94E30F00E010E0980141E060E043
:10207000CE010E94E30F00E010E0980140E064E030
:10208000CE010E94E30F00E010E0980141E068E01B
:10209000CE010E94E30F00E010E0980140E060E113
:1020A000CE010E94E30F00E010E0980141E064E1FE
:1020B000CE010E94E30F00E010E0980140E068E1EB
:1020C000CE010E94E30F10E340E0612FCE010E9499
:1020D000EE0D60E1610F40E0CE010E94EE0D60E286
:1020E000610F40E0CE010E94EE0D1F5F1E3361F7CD
:1020F00040E060E6CE010E94EE0D40E060E7CE01D8
:10210000DF91CF911F910F910C94EE0DEF92FF9202
:102110000F931F93CF93DF93EC01062FF42EE22E43
:102120000E94B00D80E48B8B60E8CE010E94990E76
:10213000182F882341F065EA71E082E793E00E945E
:102140009112812F5CC06DE771E082E793E00E94FD
:1021500091124E2D6F2DCE010E94E10E882339F091
:1021600061E671E082E793E00E94911247C064E467
:1021700071E082E793E00E949112CE010E941F104D
:1021800043E06BE2CE010E94EE0D4CE36CE0CE0129
:102190000E94EE0D40E06DE0CE010E94EE0D0023A6
:1021A00051F0033019F524E644E660E6CE010E94C2
:1021B000460E20E607C024E044E660E6CE010E9419
:1021C000460E20E040E660E7CE010E94460E6B8995
:1021D000CE010E94990EC82F882381F062E071E041
:1021E00082E793E00E9491128C2F09C068E271E0AF
:1021F00082E793E00E94911281E001C080E0DF91CC
:10220000CF911F910F91FF90EF900895FF920F9340
:102210001F93CF93DF93EC01F62EAC014A5F5F4F23
:1022200065E06F0D2D810E94100E8E85813019F4AE
:102230008D8180648D8364E06F0D4D81CE010E949D
:10224000EE0D09811A812B813C8148816F2DCE01D1
:102250000E94A70FDF91CF911F910F91FF900895DA
:102260008F929F92AF92BF92CF92DF92EF92FF92A6
:102270001F93CF93DF9300D01F92CDB7DEB74C01F1
:102280006B018091D2019091D301A091D4018983F7
:102290009A83AB83FB011082CE0101967C015E0123
:1022A00094E0A90EB11CF70111917F01612FC401C7
:1022B0000E94CC0D982F987083FD04C01F5FF6011B
:1022C000108304C0EA14FB0471F792E0892F0F9089
:1022D0000F900F90DF91CF911F91FF90EF90DF90C3
:1022E000CF90BF90AF909F908F900895CF93DF9342
:1022F000EC01862F6A8B61E00E94A40B61E08A8961
:102300000E94680B83E194E0998B888BDF91CF91D9
:102310000895FF920F931F93CF93DF93EC01162F35
:10232000042FF22E0E94B4152F2D402F612FCE01C5
:102330000E94861091E0811101C090E0892FDF9109
:10234000CF911F910F91FF900895BF92CF92DF928E
:10235000EF92FF920F931F93CF93DF931F92CDB70E
:10236000DEB78C010E94370C6B017C01BE016F5FF0
:102370007F4FC8010E943011B82E0E94370CDC013B
:10238000CB018C199D09AE09BF0922E0B21206C02B
:10239000843C9940A105B10548F331C0843C994083
:1023A000A105B10560F56981C8010E940611698126
:1023B000615028E048E0C8010E94460E0E94370C98
:1023C0006B017C0169816150C8010E94CC0DB82E5F
:1023D0000E94370CDC01CB018C199D09AE09BF09A5
:1023E000B3FE06C0843C9940A105B10558F309C06D
:1023F000843C9940A105B10520F480E003C086E04B
:1024000001C087E00F90DF91CF911F910F91FF9056
:10241000EF90DF90CF90BF900895EF92FF920F93CF
:10242000FC01418352836383748316862083058372
:10243000F701DC0116969C01225F3F4F41914D93BD
:10244000A217B307D9F70F91FF90EF900C94A51145
:10245000CF92DF92EF92FF920F931F93CF93DF9370
:102460006C017A018B01C0E0D0E0CE15DF0581F070
:10247000D8016D918D01D601ED91FC910190F08113
:10248000E02DC6010995892B11F02196EECF7E0132
:10249000C701DF91CF911F910F91FF90EF90DF90D7
:1024A000CF9008956115710579F0FB01019000202E
:1024B000E9F73197AF01461B570BDC01ED91FC9119
:1024C0000280F381E02D099480E090E00895EF927E
:1024D000FF920F931F93CF93DF938C017B01C0E09A
:1024E000D0E0F701EC0FFD1F6491662361F0D80185
:1024F000ED91FC910190F081E02DC8010995892BA7
:1025000011F02196EECFCE01DF91CF911F910F9167
:10251000FF90EF9008950C94521266E173E00C94D2
:1025200052120F931F93CF93DF93EC010E94671217
:102530008C01CE010E948D12800F911FDF91CF91EF
:102540001F910F9108950F931F93CF93DF93EC0189
:102550000E9452128C01CE010E948D12800F911F99
:10256000DF91CF911F910F9108958F929F92AF921B
:10257000BF92EF92FF920F931F93CF93DF93CDB74C
:10258000DEB7A1970FB6F894DEBF0FBECDBF7C01BA
:10259000FA01CB0119A2223008F42AE08E010F5D66
:1025A0001F4F822E912CA12CB12CBF01A5019401AB
:1025B0000E94ED15F901CA01015011096A3014F4A5
:1025C000605D01C0695CD8016C93232B242B252B03
:1025D00061F7B801C7010E945212A1960FB6F89494
:1025E000DEBF0FBECDBFDF91CF911F910F91FF9046
:1025F000EF90BF90AF909F908F9008952115310577
:1026000041F4DC01ED91FC910190F081E02D642F0B
:1026100009940C94B5129A01462F50E060E070E0E6
:102620000C94FE120F931F93CF93DF93EC010E9443
:102630000B138C01CE010E948D12800F911FDF9130
:10264000CF911F910F9108950F931F93CF93DF9315
:10265000EC010E942B0C688779878A879B87E88129
:10266000F9810484F585E02DCE01099597FF17C007
:102670000E942B0C088519852A853B85DC01CB013E
:10268000801B910BA20BB30B0C811D812E813F810E
:1026900080179107A207B30710F38FEF9FEFDF9129
:1026A000CF911F910F910895FF920F931F93CF9396
:1026B000DF93EC018B01F42ECE010E94241397FDD1
:1026C0002DC08D32910519F19C01205331092A301A
:1026D000310520F1FF2019F08E329105D1F0013043
:1026E0001105D1F00230110551F48D30910539F00A
:1026F00024F40997029718F00FC0809769F4E881D5
:10270000F9810284F385E02DCE010995D5CF8DE2C4
:1027100001C08EE290E002C08FEF9FEFDF91CF917A
:102720001F910F91FF900895BF92CF92DF92EF9289
:10273000FF920F931F93CF93DF938C01C42F40E040
:102740000E945413FC0197FD47C0C12CD12C760187
:10275000B12C0C2E000CDD0BEC17FD0709F1ED324E
:10276000F105E1F0CF01C0970A97D0F4AAE0B0E0FC
:10277000A70196010E9415166F01FF0FEE08FF08D2
:10278000DC01CB018C0D9D1DAE1DBF1D6C017D01BB
:1027900020E3C21AD108E108F10802C0BB24B394B7
:1027A000D801ED91FC910284F385E02DC8010995D3
:1027B000C8010E942413FC01C0970A9768F2CE1743
:1027C000DF0751F2BB2061F066277727CB016C1938
:1027D0007D098E099F0906C060E070E0CB0102C050
:1027E000C701B601DF91CF911F910F91FF90EF903C
:1027F000DF90CF90BF9008951F920F920FB60F9267
:1028000011242F938F939F93EF93FF93E091820373
:10281000F09183038081E0918803F091890382FD28
:1028200012C0908180918B038F5F8F7320918C03F6
:10283000821751F0E0918B03F0E0EE58FC4F958F3A
:1028400080938B0301C08081FF91EF919F918F91C5
:102850002F910F900FBE0F901F9018951F920F92FF
:102860000FB60F9211242F933F934F935F936F9363
:102870007F938F939F93AF93BF93EF93FF9382E7E1
:1028800093E00E94BE14FF91EF91BF91AF919F9191
:102890008F917F916F915F914F913F912F910F9009
:1028A0000FBE0F901F901895E2E7F3E0138212829B
:1028B00088EE93E0A0E0B0E084839583A683B7839D
:1028C00089E293E09183808385EC90E0958784870B
:1028D00084EC90E09787868780EC90E0918B808BEA
:1028E00081EC90E0938B828B82EC90E0958B848BD3
:1028F00086EC90E0978B868B118E128E138E148E41
:102900000895FC01918D228D892F90E0805C9F4F6E
:10291000821B91098F7399270895FC01918D828DF7
:10292000981731F0828DE80FF11D858D90E00895A4
:102930008FEF9FEF0895FC01918D828D981761F0C4
:10294000828DDF01A80FB11D5D968C91928D9F5FE6
:102950009F73928F90E008958FEF9FEF0895FC0191
:10296000538D448D252F30E0842F90E0821B930BF4
:10297000541710F0CF96089501970895FC01848DA7
:10298000DF01A80FB11DA35ABF4F2C91848D90E099
:1029900001968F739927848FA689B7892C93A08974
:1029A000B1898C91837080648C93938D848D9813FE
:1029B00006C00288F389E02D80818F7D8083089591
:1029C000EF92FF920F931F93CF93DF93EC0181E07F
:1029D000888F9B8D8C8D981305C0E889F98980813B
:1029E00085FD26C0F62E0B8D10E00F5F1F4F0F7375
:1029F0001127E02E8C8DE8120CC00FB607FCFACF21
:102A0000E889F989808185FFF5CFCE010E94BE1447
:102A1000F1CF8B8DFE01E80FF11DE35AFF4FF082DD
:102A20009FB7F8940B8FEA89FB89808180620AC086
:102A30009FB7F894EE89FF896083E889F9898081DE
:102A40008370806480839FBF81E090E0DF91CF91AD
:102A50001F910F91FF90EF900895CF93DF93EC01BA
:102A6000888D8823C9F0EA89FB89808185FD05C0AE
:102A7000A889B9898C9186FD0FC00FB607FCF5CFE8
:102A8000808185FFF2CFA889B9898C9185FFEDCF30
:102A9000CE010E94BE14E7CFDF91CF910895CF926F
:102AA000DF92EF92FF921F93CF93DF93EC016A01C5
:102AB0007B01122FE889F98982E080834115514E0C
:102AC00061057105B1F060E079E08DE390E0A70168
:102AD00096010E94ED15DA01C9010197A109B1091A
:102AE000B695A795979587959C01211580E13807A4
:102AF000A8F0E889F989108260E874E88EE190E036
:102B0000A70196010E94ED15DA01C9010197A109FB
:102B1000B109B695A795979587959C01EC85FD859C
:102B20003083EE85FF852083188EEC89FD89108324
:102B3000EA89FB89808180618083EA89FB898081C1
:102B400088608083EA89FB89808180688083EA8944
:102B5000FB8980818F7D8083DF91CF911F91FF90D2
:102B6000EF90DF90CF900895CF93CFB7F8948091F6
:102B70001204811127C0E4EEF0E08491E0EDF0E072
:102B80009491E82FF0E0EE0FFF1FE850FF4FA59162
:102B9000B491EC91E92321F461E08AE00E94A40B56
:102BA00061E08AE00E94680B8CB580618CBD8CB5B9
:102BB00080648CBD61E08DE00E94680B61E08BE079
:102BC0000E94680B809112048F5F80931204CFBF24
:102BD000CF910895F8940C942F16A1E21A2EAA1BF7
:102BE000BB1BFD010DC0AA1FBB1FEE1FFF1FA217BD
:102BF000B307E407F50720F0A21BB30BE40BF50BBA
:102C0000661F771F881F991F1A9469F76095709542
:102C1000809590959B01AC01BD01CF010895EE0F09
:102C2000FF1F0590F491E02D09940E942016A59FA6
:102C3000900DB49F900DA49F800D911D11240895B7
:102C4000A29FB001B39FC001A39F700D811D1124ED
:102C5000911DB29F700D811D1124911D0895F8944E
:022C6000FFCFA4
:102C62000000000000000000000000000000000062
:102C72000000000000000000000000000000000052
:102C82000000000000000000000000000000000042
:102C92000000000000000000000000000000000032
:102CA2000000000000000000000000000000000022
:102CB2000000000000000000000000000000000012
:102CC2000000000000000000FF01FFFFFFFFFFFF08
:102CD200FFFF0000CE0200006303FFFFFFFFFFFFC4
:102CE200FFFF00009402000000006E000000580286
:102CF2000000029D0200000000460000009001005A
:102D020000020000000300000000020001000000B9
:102D1200FFFF0000010000000000000000000000B2
:102D2200000000000400FF00000100FF00002F0D62
:102D32002F0D304050FF4D43503235313520636105
:102D42006E5F73656E6420696E696369616C697A2E
:102D520061646F20636F6D207375636573736F2198
:102D62000063616E5F73656E64204D313A206D655C
:102D72006E736167656D207472616E736D697469DB
:102D8200646120636F6D207375636573736F006395
:102D9200616E5F73656E64204D313A204D657373C9
:102DA2006167652074696D656F7574210063616E7A
:102DB2005F73656E64204D313A204572726F7220E6
:102DC200746F2073656E64210056616C6F722064AB
:102DD20061206D6172636861207265636562696416
:102DE2006F2070656C612073657269616C3A2000B6
:102DF20093018401AC0153099A02CF0601AC01533D
:102E020009A302CF0600A701A2016303C002B20216
:102E1200CE02160514040001D20A000001030100CB
:102E22001405740500010C0B0000000201002205CC
:102E320024055000D30C000002000100C901C401A6
:102E4200000101000000E507B307BC07950729054B
:102E5200320716055B073708D806E006F008270890
:102E6200290950085C099B089309D306E5097308F0
:102E7200480A890ABA080D0A006E616E00696E6618
:102E8200006F76660000000000E0142812AF142DD7
:082E92001581149B148D14003E
:00000001FF
