:100000000C94EE000C94F10E0C94180F0C94160145
:100010000C9416010C9416010C9416010C94160104
:100020000C9416010C9416010C9416010C941601F4
:100030000C9416010C9416010C9416010C941601E4
:100040000C94940D0C9416010C94FA160C942C1725
:100050000C9416010C9416010C9416010C941601C4
:100060000C9416010C9416019511151119111D11FE
:100070002111251128112B112F113211361139118F
:100080003D11401199114F115311B31157117811AE
:100090005B11801183115E118A1162116511681163
:1000A0009D1178117C118011831186118A118E1196
:1000B0009211000000080002010000030407000084
:1000C000000000000000010204081020408001022E
:1000D000040810200102040810200404040404048D
:1000E00004040202020202020303030303030000EA
:1000F0000000230026002900000000002500280041
:100100002B0000000000240027002A0052657475AF
:10011000726E696E6720746F2050726576696F75B4
:1001200073204D6F6465204661696C7572652E2E73
:100130002E006053657474696E67204944204D6FCA
:100140006465204661696C7572652E2E2E005365BC
:100150007474696E672042617564726174652053BE
:1001600075636365737366756C2100536574746998
:100170006E67204261756472617465204661696CC6
:100180007572652E2E2E00456E746572696E67203D
:10019000436F6E66696775726174696F6E204D6F2B
:1001A0006465205375636365737366756C210045E0
:1001B0006E746572696E6720436F6E6669677572EB
:1001C0006174696F6E204D6F6465204661696C755E
:1001D00072652E2E2E006E0CEB0E521711241FBED0
:1001E000CFEFD8E0DEBFCDBF13E0A0E0B1E0E8EE96
:1001F000F5E302C005900D92A234B107D9F728E0CB
:10020000A2E4B3E001C01D92AB39B207E1F710E000
:10021000CEEED0E004C02197FE010E94D21ACB3E60
:10022000D107C9F70E94DC0E0C94E8180C9400006A
:10023000E2E10E94BD010895E9E00E94BD01089538
:10024000EAE00E94BD010895E1E00E94BD01089529
:10025000E3E00E94BD010895E7E00E94BD0108951A
:10026000E5E00E94BD010895E0E00E94BD0108950F
:10027000E2E00E94BD010895E4E00E94BD010895FE
:10028000ECE00E94BD010895E8E00E94BD010895E0
:10029000EEE00E94BD010895E4E10E94BD010895D1
:1002A000E0E10E94BD010895E7E10E94BD010895CB
:1002B000E6E00E94BD010895EBE00E94BD010895B3
:1002C000EDE00E94BD010895EFE00E94BD01089598
:1002D000E1E10E94BD010895E3E10E94BD0108959E
:1002E000E5E10E94BD010895E6E10E94BD01089587
:1002F00021968A929A92AA92BA92CA92DA92EA9233
:10030000FA920A931A932197E0917201F091730186
:100310000080F181E02DC083D1830895C0917401E4
:10032000D0917501E881F981C081D181219619911F
:100330000991F990E990D990C990B990A9909990B4
:100340008990219708952F903F90E7E6F1E0CDB78F
:10035000DEB7EDBFFEBF3F922F9208952F903F90E2
:10036000CDBFDEBF3F922F920895E0E80E94BD010D
:100370000895E0E40E94BD0108952F923F924F92AC
:100380005F926F927F922FB62F92CF93DF937E2E44
:10039000F894E0910001EF5FE0930001E13011F487
:1003A0000E94A301E0E0E0938201E72DE07849F0AC
:1003B0000E941106F0918301F17071F00E94C40453
:1003C0000BC0E72DEC3140F4EE0FF0E0EF50FD4FA5
:1003D0000190F081E02D0995F0918201EF2FE170FD
:1003E00059F0F27011F00E9478018F938F2F0E94C4
:1003F0000C048F910E948E012091000121502093C6
:100400000001222311F40E94AE01DF91CF912F90C1
:100410002FBE7F906F905F904F903F902F900895E8
:10042000CF92DF92EF92FF920F931F93DC01EC913A
:10043000DB012C918E2F8170C82ED12CE12CF12C58
:100440008E2F8F7090E0A0E0B0E0B695A7959795BD
:100450008795DC01A558BC4F8C91C81AD108E108DA
:10046000F108EE70422F417050E060E070E0822FA2
:100470008F7090E0A0E0B0E0B695A795979587952E
:10048000DC01A558BC4F8C91481B510961097109C9
:10049000822F8E7097018601017011272227332742
:1004A0000E2B4170552766277727482B81E090E077
:1004B000041715072607370710F080E090E01F911A
:1004C0000F91FF90EF90DF90CF9008958F929F92C1
:1004D000AF92BF92EF92FF920F931F93CF93DF9350
:1004E0007C014A015B01B694A794979487944230AB
:1004F000510561057105E0F0440F551F8701040F98
:10050000151FE401CC0FDD1FCE0DDF1DB801CE019C
:100510000E941002892B61F0F8019081818128816D
:1005200039813183208398838983B501A401DBCF8E
:10053000DF91CF911F910F91FF90EF90BF90AF90FF
:100540009F908F9008954F925F926F927F928F92BB
:100550009F92AF92BF92CF92DF92EF92FF920F9352
:100560001F93CF93DF9300D000D000D0CDB7DEB77C
:100570008C016A017B01DC018C91282F30E040E086
:1005800050E029833A834B835C8346015701880CF2
:10059000991CAA1CBB1C29813A814B815C812815BE
:1005A00039054A055B0508F442C0240135013FEFD7
:1005B000431A530A630A730A89819A81AB81BC8109
:1005C00084159505A605B70580F0B201660F771F63
:1005D000600F711FC401880F991F800F911F0E9427
:1005E0001002892B11F0530142013401660C771C73
:1005F000600E711ECC0CDD1CD801AC0DBD1DBE8380
:10060000AD83B301CD010E941002892B81F0ED81F1
:10061000FE8190818181D3012D913C91119731838D
:1006200020839C9311968C9375016401AECF26961E
:100630000FB6F894DEBF0FBECDBFDF91CF911F91F3
:100640000F91FF90EF90DF90CF90BF90AF909F9071
:100650008F907F906F905F904F900895E9E3F4E062
:1006600040814F5F408350E060E070E0E82FEE0F84
:10067000FF0BED56FD4F0190F081E02D238530E01A
:10068000F901E558FC4F908191509083FA01EE0FEB
:10069000FF1FE75CFB4F220F331F9170292B208334
:1006A000818389E394E00C946602E9E3F4E04081FD
:1006B0004F5F408350E060E070E0E82FEE0FFF0BEB
:1006C000E757FD4F0190F081E02D9381FA01EE0F85
:1006D000FF1FE75CFB4F9083818389E394E00C94D8
:1006E0006602CF93DF93E9E3F4E080819FEF980FF8
:1006F0009083D281C38190E0880F991FDC01A75CB1
:10070000BB4F8D919C919383828341E050E060E0E8
:1007100070E0CF010E94A3028D2F9C2FDF91CF911B
:10072000089580917A0190917B01A0917C01B09114
:100730007D018F3F2FEF9207A207B20731F0049798
:10074000A105B10524F481E0089580E0089582E0D8
:100750000895880F990BFC01ED56FD4F0190F08133
:10076000E02D0084F185E02D3097E9F02281211100
:100770001AC021E02283DC01A757BD4F0D90BC9128
:10078000A02D13968C9113978183808190E0FC01BA
:10079000E558FC4F208121502083880F991F21703C
:1007A000822B13968C930895880F990BFC01ED56BC
:1007B000FD4F0190F081E02D0084F185E02D309710
:1007C00061F02281213049F412822181FC01E75736
:1007D000FD4F0190F081E02D2383089580917E01EB
:1007E00090917F01A0918001B091810140917A01A7
:1007F00050917B0160917C0170917D0148175907F0
:100800006A077B0741F0E0917801F091790121E0DE
:1008100024830C9455030895CF93DF93882391F09C
:10082000C0917201D0917301E0917601F09177014E
:100830008481833049F081E0848380917A010E9431
:10084000550302C0C0E0D0E0E0917801F091790159
:10085000F0937701E0937601809174019091750196
:10086000909373018093720180917E0130917F019A
:10087000209180019091810180937A0130937B01D6
:1008800020937C0190937D0192E094830E94A903C0
:10089000CE01DF91CF91089580917A010E94D40317
:1008A000E0917601F09177018281882319F085E04B
:1008B0008483089514820895CF93DF93282F220F05
:1008C000330BF901E757FD4FC081D1819A81F901BE
:1008D000ED56FD4F0190F081E02D2485921770F4C4
:1008E000911105C095E09C8391E0909383010E9453
:1008F0002E038A818F5F8A8380E001C084E0DF91CC
:10090000CF910895E82FEE0FFF0BE757FD4F0190B1
:10091000F081E02D118210820C94960E1F93CF93DC
:10092000DF930E947103182F892F492F092E000C85
:10093000550B660B770B40937E0150937F016093BC
:10094000800170938101292F220F330BF901E757A2
:10095000FD4FC081D181D0937901C0937801F90115
:10096000ED56FD4F20813181309375012093740144
:100970009C81953019F40E9482041B83109283019C
:10098000DF91CF911F910895E0917E01F0917F0159
:10099000EE0FFF1FE757FD4F0190F081E02D909182
:1009A0003B048381891730F40E94EE030E948E0479
:1009B00083E001C080E080938201089581E080930C
:1009C00082010C948E04EF92FF920F931F93CF93AA
:1009D000DF93C1E001C0CC0F8A95EAF784E00E9462
:1009E0005C040CEE12E0D0E0F80181918F018C23C1
:1009F00019F08D2F0E945C04DF5FD430A9F708EE58
:100A000012E08DE5E82E82E0F82ED1E0F801819128
:100A10008F018C2339F0F70180819181FC01D68709
:100A20000E944A05F2E0EF0EF11C82E00C3E18072E
:100A300069F7DF91CF911F910F91FF90EF9008958B
:100A40000E94F80681110E941907E0917601F09149
:100A5000770180819181892B21F080917A010E9418
:100A6000E0080C9441080E94F80681110E941907C1
:100A7000E0917601F091770180819181892B21F0BD
:100A800080917A010E94E0080C94290881E080930B
:100A900042030895AF92BF92CF92DF92EF92FF92FE
:100AA0000F931F93CF93DF93FC01A081B181AD9091
:100AB000BC90E501AC89BD89109739F0428553851A
:100AC0006485758530E020E017C0D50155969C936C
:100AD0008E93549757969C938E93569715821482B3
:100AE000138212825BC012968D919C9113973A2FBC
:100AF0002B2F009779F0DC011A96CD90DD90ED90C8
:100B0000FC901D974C155D056E057F0560F7CD01C6
:100B1000A32FB22F93838283B583A483009719F008
:100B2000EC01FD83EC83109729F01396FC93EE9370
:100B3000129705C0D5015596FC93EE935497E501A5
:100B4000AE89BF891A968D919D910D90BC91A02D73
:100B5000088919892A893B8980179107A207B30759
:100B600080F4041715072607370728F04817590798
:100B70006A077B0798F4D5015796FC93EE93569736
:100B80000DC0041715072607370740F44817590703
:100B90006A077B0718F4E501FF8BEE8BDF91CF919D
:100BA0001F910F91FF90EF90DF90CF90BF90AF908B
:100BB0000895CF93DF93DC01ED91FC9111970190A3
:100BC000F081E02D848995891296CD91DC9113975F
:100BD000A817B90711F4D58BC48B86899789A817F4
:100BE000B90711F4D78BC68B209731F014968D91ED
:100BF0009C9115979D838C8314960D90BC91A02D8C
:100C0000109721F01396DC93CE93129786899789DB
:100C1000892B21F484899589978B868BDF91CF91DD
:100C20000895EF92FF920F931F93CF93DF93FC01F0
:100C300080914203882309F4B5C084859585A685F3
:100C4000B7850196A11DB11D84879587A687B787B3
:100C5000408151816281738184179507A607B70788
:100C600009F0A0C040895189628973894F5F5F4F45
:100C70006F4F7F4F84819581A681B7818417950737
:100C8000A607B70718F440E050E0BA01408B518B3B
:100C9000628B738B1486158616861786C689D7894C
:100CA000209709F47FC08A859B85AC85BD85481750
:100CB00059076A077B0709F075C0CE01DC0112965F
:100CC000ED90FC901397E114F10471F0D7011A969E
:100CD0000D911D912D913C911D9740175107620771
:100CE000730711F4C701EACF2C813D81211531052D
:100CF00029F0D9011396FC92EE921297E114F104B7
:100D000029F0D70115963C932E93149724893589A1
:100D1000C217D30711F4F58AE48AE114F10419F03B
:100D2000F78AE68A04C024893589378B268B8F01A0
:100D3000FC0113821282EA80FB80E881F981028043
:100D4000F381E02DCE0109954E815F81688579851B
:100D5000411551056105710509F18A859B85AC85B1
:100D6000BD85840F951FA61FB71FF80144815581CB
:100D700066817781481759076A077B0738F4841B17
:100D8000950BA60BB70B0197A109B1098A879B8721
:100D9000AC87BD87CE010E944A0501C01E86E701CF
:100DA000209749F6DF91CF911F910F91FF90EF901F
:100DB0000895FC0182810C945C040E94F8068091E5
:100DC00068010895809368010E94E3040E9446052B
:100DD0000C94DE040C94950ECF93C82F0E949103BF
:100DE000811102C00E94D20E8C2FCF910C941C0155
:100DF00080914F038130D9F080914703909148034F
:100E0000A0914903B0914A03892B8A2B8B2B79F44B
:100E100081E040914B0350914C0360914D037091E0
:100E20004E03452B462B472B19F480E0089581E0B3
:100E3000089510924F0310924B0310924C0310929E
:100E40004D0310924E0310924703109248031092E4
:100E5000490310924A038091430390914403A09167
:100E60004503B09146038093500390935103A093A0
:100E70005203B093530308950E94D50E80915003FE
:100E800090915103A0915203B09153030196A11D7B
:100E9000B11D8093500390935103A0935203B093DC
:100EA000530380914B0390914C03A0914D03B0915B
:100EB0004E030196A11DB11D80934B0390934C03EB
:100EC000A0934D03B0934E03089580914B039091EE
:100ED0004C03A0914D03B0914E030097A105B105BD
:100EE00069F1409150035091510360915203709108
:100EF00053034150510961097109409350035093C4
:100F0000510360935203709353030197A109B109F0
:100F100080934B0390934C03A0934D03B0934E03E7
:100F20008091500390915103A0915203B0915303CB
:100F3000892B8A2B8B2B11F40C94D30E089580915E
:100F40004B0390914C03A0914D03B0914E03892B1C
:100F50008A2B8B2B89F48091470390914803A091B1
:100F60004903B0914A03892B8A2B8B2B29F40E94C9
:100F7000D50E81E080934F03089580914F0388231D
:100F800021F010924F030C94D30E08950E94D90EB5
:100F90008091500390915103A0915203B09153035B
:100FA0000196A11DB11D8093500390935103A0930E
:100FB0005203B09353038091470390914803A0914B
:100FC0004903B0914A030196A11DB11D80934703C7
:100FD00090934803A0934903B0934A0308958091E6
:100FE000470390914803A0914903B0914A030097A9
:100FF000A105B10569F140915003509151036091F1
:101000005203709153034150510961097109409392
:10101000500350935103609352037093530301970D
:10102000A109B1098093470390934803A093490312
:10103000B0934A038091500390915103A0915203C1
:10104000B0915303892B8A2B8B2B11F40C94D70E60
:1010500008950E94F806882311F083E1089580E046
:101060000895CF93C82F0E94F8068C2F0E945C042D
:10107000C82F8091830181110E94C4048C2FCF91CD
:101080000895CF930E94F806882311F0C3E101C0B0
:10109000C0E0E0917601F0917701828181508283F6
:1010A0000E944C0481E0809382010E948E048C2F68
:1010B000CF910895CF93C82F0E94F806E091760152
:1010C000F09177018281815082838C2F0E945C0491
:1010D000C82F811108C00E944C0481E080938201D6
:1010E0000E948E0407C0E0917601F0917701828121
:1010F0008F5F82838C2FCF910895CF930E94F80643
:10110000882311F0C3E101C0C0E080917A010E9400
:10111000D4030E94C40480917A0190917B01A09134
:101120007C01B0917D0140917E0150917F016091E1
:1011300080017091810184179507A607B70711F404
:101140000E94A9038C2FCF910895CF93DF93EC01D8
:101150000E94F806882311F083E101C080E04091ED
:101160007A0150917B0160917C0170917D01443046
:1011700051056105710514F4488303C09091FD0188
:101180009883DF91CF9108950F931F93CF93C82F2A
:101190008B010E94F806882311F083E101C080E0F2
:1011A000EC2FEE0FFF0BE757FD4F0190F081E02D84
:1011B00094819370F8019083CF911F910F910895BE
:1011C000880F990BFC01E757FD4FA081B181ED918C
:1011D000FC911197309769F01D921C922091FD01AE
:1011E00093818481228314821382E92FF82F309710
:1011F000B9F70895CF93C82F0E94F806882311F0FD
:1012000083E101C080E0EC2FF0E0EE0FFF1FED5115
:10121000FD4FA081B18190917A0112969C93129713
:10122000E0917601F09177012081318114963C9311
:101230002E931397B183A083938111969C9311975A
:101240002C9193819695921760F430E0D901A558BE
:10125000BC4F9C9191509C93220F331F9170292B6E
:101260002383CF910895CF93DF93C82F0E94F80670
:10127000882311F0D3E101C0D0E0EC2FF0E0EE0FB5
:10128000FF1FED51FD4F0190F081E02DA0917601FF
:10129000B0917701818113968C9313978381948108
:1012A0008D939C93148213828091FD0182830E940E
:1012B000C4048D2FDF91CF910895DC01ED91FC9155
:1012C00084819581DC01ED91FC9109941F93CF936A
:1012D000DF93182FEB010E94F806882311F083E1B9
:1012E00001C080E0E12FF0E0EE0FFF1FE35AFD4F59
:1012F0000190F081E02D0190F081E02D0190F081CE
:10130000E02D40815181628173814C835D836E83C6
:101310007F834481558166817781488359836A83BD
:101320007B834085518562857385488759876A87A5
:101330007B87DF91CF911F9108958F929F92AF92FB
:10134000BF92CF92DF92EF92FF920F931F93CF93B2
:10135000C82F8B010E94F806882311F083E101C099
:1013600080E0EC2FF0E0EE0FFF1FE35AFD4F0190FD
:10137000F081E02D9685913029F54285538564856D
:1013800075850190F081E02D0190F081E02DC088FD
:10139000D188E288F3884C155D056E057F0540F421
:1013A00084809580A680B780480D591D6A1D7B1DDD
:1013B0004C195D096E097F09F801408351836283EE
:1013C000738301C085E0CF911F910F91FF90EF9043
:1013D000DF90CF90BF90AF909F908F9008958F92A5
:1013E0009F92AF92BF92CF92DF92EF92FF920F93B4
:1013F0001F93CF93DF93D82F4A015B0168017901D6
:101400000E94F806882311F0C3E101C0C0E0ED2F6F
:10141000F0E0EE0FFF1FE35AFD4F0190F081E02D49
:101420008685811130C0A081B1810D90BC91A02D25
:1014300050964D915D916D917C915397480D591D3A
:101440006A1D7B1D14968D919D910D90BC91A02DD0
:1014500084179507A607B70740F4481B590B6A0B7A
:101460007B0B415051096109710942875387648799
:101470007587C682D782E086F18681E08687CF01B4
:101480000E944A0501C0C7E08C2FDF91CF911F91C8
:101490000F91FF90EF90DF90CF90BF90AF909F9013
:1014A0008F9008958F929F92AF92BF92CF92DF92CA
:1014B000EF92FF920F931F93CF93DF93C82F4A01B0
:1014C0005B01680179010E94F806882311F0D3E1DD
:1014D00001C0D0E0EC2FF0E0EE0FFF1FE35AFD4F0C
:1014E0000190F081E02D868581110EC08286938661
:1014F000A486B586C682D782E086F18681E086879B
:10150000CF010E944A0501C0D7E08D2FDF91CF9116
:101510001F910F91FF90EF90DF90CF90BF90AF9011
:101520009F908F9008950F931F93CF93DF93C82FB1
:101530000E94F806882311F0D3E101C0D0E0EC2F1F
:10154000F0E0EE0FFF1FE35AFD4F00811181F8011B
:101550008685813031F4C8010E94D905F8011686CC
:1015600001C0D5E08D2FDF91CF911F910F9108958C
:1015700060E082E00E94000D26E040E052EC61E075
:1015800070E081E993E00E944D1822E04DE063E0B5
:1015900084E593E00E942E14882339F068EC70E013
:1015A00080E090E00E941D0EF0CF60E084E593E0C3
:1015B0000C94F310EF92FF920F931F93CF93DF934E
:1015C0001091E702812F0E945C01C0916903D0E075
:1015D000DC2FCC2780916803C82B93E0CC0FDD1F54
:1015E0009A95E1F7C0936D01D0936E01812F0E940F
:1015F00060012AE6E22E21E0F22E08E021E040E040
:1016000054E060EF7CE084E593E00E94B214811125
:101610000DC06EEF71E081E993E00E949C154AE0F5
:1016200050E0BE0181E993E00E941016DF91CF9156
:101630001F910F91FF90EF900C9444018F929F9215
:10164000AF92BF92CF92DF92EF92FF920F93CF9320
:10165000C091E7028C2F0E945C016091690370E0E9
:10166000762F662780916803682B8091690181300D
:1016700071F08230A9F08330E1F0843019F18530C7
:1016800051F1882341F1C12CD12C76012AC058EBAD
:10169000C52E5EE1D52E55E7E52E50E4F52E21C08E
:1016A0004DE3C42E4AE0D42E47E1E42E40E4F42E6C
:1016B00018C03CEEC32E31E5D32E38EDE32E3FE3C8
:1016C000F32E0FC024E1C22E2EEAD22E27EAE22EFC
:1016D0002FE3F22E06C0C12CD12C90E8E92E9FE317
:1016E000F92E80E090E00E948C1929E739EE46EA55
:1016F0005EE30E94431A4B015C0123E333E343E6BC
:1017000050E4C701B6010E94431A9B01AC01C50118
:10171000B4010E94EB186B017C0120E030E04EE741
:1017200053E40E943E1A18164CF0C0926A03D092FD
:101730006B03E0926C03F0926D030CC080E090E0CC
:10174000AEE7B3E480936A0390936B03A0936C03BA
:10175000B0936D0320E030E040E853E460916A0309
:1017600070916B0380916C0390916D030E94431AFA
:101770000E945D196B0160936B01D0926C018C2FFC
:101780000E9460018AE6E82E81E0F82E08E021E060
:1017900040E051EF6EEF78E184E593E00E94B214EF
:1017A00081111BC062E372E081E993E00E949C1505
:1017B0004AE050E0B60181E993E00E94101660E52E
:1017C00072E081E993E00E949C154AE050E06D2DA3
:1017D00070E081E993E00E941016CF910F91FF9085
:1017E000EF90DF90CF90BF90AF909F908F900C9430
:1017F0004401CF9382E00E946B0D892B09F06BC0EE
:1018000023E733E042E753E06EE673E084E593E0DC
:101810000E94ED14C091E7028C2F0E945C01809120
:10182000690390E0982F882720916803822B4091CC
:101830006E0350916F036091700370917103437058
:101840005570607F787143305540604F784129F47E
:10185000209176032D572093690120916901211170
:1018600007C081342FE1920778F180E49FE12CC01A
:10187000213039F4813A2FE0920730F180EA9FE07D
:1018800023C0223039F4813C22E19207E8F080EC59
:1018900092E11AC0233039F4813E25E19207A0F08D
:1018A00080EE95E111C0243039F4813029E19207AE
:1018B00058F080E099E108C0253031F481322CE104
:1018C000920710F080E29CE1809368039093690393
:1018D0008C2F0E946001CF910C9444016AE084E552
:1018E00093E00C941B141F93CF93DF9381E993E053
:1018F0000E947F17181619060CF04FC041E060E0F7
:1019000070E081E993E00E949216EB011091E702EA
:10191000812F0E945C0180916901811107C0C1344F
:101920008FE1D80778F1C0E4DFE12CC0813039F4D1
:10193000C13A8FE0D80730F1C0EADFE023C082303F
:1019400039F4C13C82E1D807E8F0C0ECD2E11AC01A
:10195000833039F4C13E85E1D807A0F0C0EED5E16F
:1019600011C0843039F4C13089E1D80758F0C0E0A3
:10197000D9E108C0853031F4C1328CE1D80710F0CC
:10198000C0E2DCE1C0936803D0936903812F0E9419
:10199000600181E993E00E949917DF91CF911F9137
:1019A0000C94440184ED91E00C94B50108958330CA
:1019B00081F028F4813099F08230A1F008958730C9
:1019C000A9F08830B9F08430D1F4809180008F7D07
:1019D00003C0809180008F7780938000089584B544
:1019E0008F7702C084B58F7D84BD08958091B0004B
:1019F0008F7703C08091B0008F7D8093B0000895F1
:101A0000CF93DF9390E0FC01EA53FF4F2491FC0158
:101A1000E652FF4F8491882361F190E0880F991F6F
:101A2000FC01EE5FFE4FC591D491FC01E850FF4FE1
:101A3000A591B491611109C09FB7F8948881209550
:101A400082238883EC912E230BC0623061F49FB710
:101A5000F8948881322F309583238883EC912E2B44
:101A60002C939FBF06C08FB7F894E8812E2B288354
:101A70008FBFDF91CF9108951F93CF93DF93282FCE
:101A800030E0F901EE54FF4F8491F901EA53FF4F22
:101A9000D491F901E652FF4FC491CC23C1F0162F27
:101AA00081110E94D70CEC2FF0E0EE0FFF1FE850E1
:101AB000FF4FA591B4919FB7F894111104C08C9178
:101AC000D095D82302C0EC91DE2BDC939FBFDF9131
:101AD000CF911F910895CF93DF93282F30E0F90124
:101AE000EE54FF4F8491F901EA53FF4FD491F9016D
:101AF000E652FF4FC491CC2391F081110E94D70C84
:101B0000EC2FF0E0EE0FFF1FE251FF4FA591B491D3
:101B1000EC91ED2381E090E021F480E002C080E0D0
:101B200090E0DF91CF9108951F920F920FB60F9220
:101B300011242F933F934F935F936F937F938F93D2
:101B40009F93AF93BF93EF93FF93809188039091FE
:101B50008903A0918A03B0918B033091870323E01E
:101B6000230F2D3720F40196A11DB11D05C026E8D5
:101B7000230F0296A11DB11D209387038093880334
:101B800090938903A0938A03B0938B0380918C0375
:101B900090918D03A0918E03B0918F030196A11DAA
:101BA000B11D80938C0390938D03A0938E03B0930B
:101BB0008F030E94D20CFF91EF91BF91AF919F9143
:101BC0008F917F916F915F914F913F912F910F90E6
:101BD0000FBE0F901F9018952FB7F894609188034F
:101BE0007091890380918A0390918B032FBF089590
:101BF0003FB7F89480918C0390918D03A0918E0350
:101C0000B0918F0326B5A89B05C02F3F19F0019610
:101C1000A11DB11D3FBFBA2FA92F982F8827820F72
:101C2000911DA11DB11DBC01CD0142E0660F771FC2
:101C3000881F991F4A95D1F708958F929F92AF926E
:101C4000BF92CF92DF92EF92FF926B017C010E94D4
:101C5000F80D4B015C01C114D104E104F10401F160
:101C60000E94930E0E94F80DDC01CB01881999099E
:101C7000AA09BB09883E9340A105B10560F321E0A4
:101C8000C21AD108E108F10888EE880E83E0981E98
:101C9000A11CB11CC114D104E104F10419F7DBCF7C
:101CA000FF90EF90DF90CF90BF90AF909F908F907C
:101CB000089584B5826084BD84B5816084BD85B596
:101CC000826085BD85B5816085BDEEE6F0E08081EE
:101CD00081608083E1E8F0E010828081826080830F
:101CE000808181608083E0E8F0E080818160808392
:101CF000E1EBF0E0808184608083E0EBF0E08081C4
:101D000081608083EAE7F0E0808184608083808165
:101D1000826080838081816080838081806880830D
:101D20001092C10008950895FFCFFFCFCF93DF93A6
:101D3000880F990BFC01ED56FD4FC081D181AC811C
:101D4000BD8111978A819B81A80FB91F2D85CD0177
:101D50000197FD013297223019F42CE331E002C0E3
:101D600028E531E02C93DC013C939E818F819083A8
:101D7000DF018E93CF0107971E928A179B07E1F729
:101D800080E8DF0118978C93CF0144971E928A1741
:101D90009B07E1F7A881B9817597ED93FC93DF91DB
:101DA000CF910895089578940895F89408957894BB
:101DB0000895F894089508950E94590E0E94DB0E2C
:101DC0000E94D60C0E94B80A809190030E94EC06F3
:101DD00080E090E008958091F00280939003089550
:101DE00008951F920F920FB60F9211242F933F93D5
:101DF0004F935F936F937F938F939F93AF93BF9313
:101E0000EF93FF93E091F601F091F7010995FF91AF
:101E1000EF91BF91AF919F918F917F916F915F9162
:101E20004F913F912F910F900FBE0F901F901895DB
:101E30001F920F920FB60F9211242F933F934F933F
:101E40005F936F937F938F939F93AF93BF93EF9322
:101E5000FF93E091F801F091F9010995FF91EF915D
:101E6000BF91AF919F918F917F916F915F914F91B2
:101E70003F912F910F900FBE0F901F9018952091BA
:101E80003004222399F04FB7F89420913004213088
:101E900059F42DB320932E043DB320912F042095A7
:101EA00023232DBB4FBF02C040932E048CBD9DBD8C
:101EB00008958EBD00000DB407FEFDCF8EB50895C8
:101EC00080913004882361F09FB7F894209130040A
:101ED00080912E04213019F48DBB9FBF08958FBFD0
:101EE0000895CF93DF93EC0180E591E00E943F0FCE
:101EF00060E08A890E943C0D80EC0E94590F61E0ED
:101F00008A890E943C0D0E94600F65E070E080E0CD
:101F100090E0DF91CF910C941D0E1F93CF93DF9330
:101F2000EC01162F80E591E00E943F0F60E08A8966
:101F30000E943C0D83E00E94590F812F0E94590F8F
:101F400080E00E94590F182F61E08A890E943C0DA1
:101F50000E94600F812FDF91CF911F910895DF9232
:101F6000EF92FF920F931F93CF93DF938C01C62FB5
:101F7000D42EE52EF22E80E591E00E943F0F60E026
:101F8000F80182890E943C0D83E00E94590F8C2F3A
:101F90000E94590FCD2DDE2DCE018F0D911D7C019C
:101FA000EC16FD0629F080E00E94590F8993F8CFC6
:101FB00061E0F80182890E943C0DDF91CF911F9171
:101FC0000F91FF90EF90DF900C94600F0F931F9391
:101FD000CF93DF93EC01062F142F80E591E00E9450
:101FE0003F0F60E08A890E943C0D82E00E94590FF9
:101FF000802F0E94590F812F0E94590F61E08A891A
:102000000E943C0DDF91CF911F910F910C94600FB6
:10201000DF92EF92FF920F931F93CF93DF938C0188
:10202000C62FD42EE52EF22E80E591E00E943F0FC0
:1020300060E0F80182890E943C0D82E00E94590F05
:102040008C2F0E94590FCD2DDE2DCE018F0D911DAD
:102050007C01EC16FD0621F089910E94590FF9CF01
:1020600061E0F80182890E943C0DDF91CF911F91C0
:102070000F91FF90EF90DF900C94600FFF920F9301
:102080001F93CF93DF93EC01F62E042F122F80E5E0
:1020900091E00E943F0F60E08A890E943C0D85E03C
:1020A0000E94590F8F2D0E94590F802F0E94590FA7
:1020B000812F0E94590F61E08A890E943C0DDF91B7
:1020C000CF911F910F91FF900C94600F1F93CF93AE
:1020D000DF93EC0180E591E00E943F0F60E08A8988
:1020E0000E943C0D80EA0E94590F80E00E94590F27
:1020F000182F61E08A890E943C0D0E94600F812F99
:10210000DF91CF911F910895EF92FF920F931F934C
:10211000CF93DF93EC01162F0E94EC0D062FE12EDA
:10212000F12C212F40EE6FE0CE010E943E106EE0B8
:10213000CE010E948D0F807E90E08E159F0539F0B4
:102140000E94EC0D601B693C60F381E001C080E0FF
:10215000DF91CF911F910F91FF90EF9008950F9312
:102160001F93CF93DF93EC01162F6EE00E948D0F2B
:10217000807E803221F5103211F16BE2CE010E9497
:102180008D0F082F007486FD06C020E440E46BE24A
:10219000CE010E943E1020E440E46CE2CE010E9499
:1021A0003E1060E6CE010E948410811116C001111C
:1021B00006C020E040E46BE2CE010E943E1020E029
:1021C00040E46CE2CE010E943E10612FCE01DF910F
:1021D000CF911F910F910C94841081E0DF91CF91EA
:1021E0001F910F910895FC01638B0C94AF10CF9257
:1021F000DF92EF92FF920F931F93CF93DF93342FD1
:102200003370313009F43FC008F466C0323009F051
:10221000AAC0062F10E0F8013197EE30F10508F062
:10222000A2C0EC5CFF4F0C94D21AC4E8D6EF23E9AD
:1022300087C0C4E8D6EF29E883C0C3E8D5EE27E815
:102240007FC0C4E8D6EF25E87BC0C4E8D6EF05C060
:10225000C3E8D5EE02C0C1E8D3ED24E871C0C4E8FC
:10226000D6EF02C0C3E8D5EE21E86AC0C4E8D6EFD5
:1022700002C0C3E8D5EE20E863C0C1E8D1ED2AC0B2
:10228000C0E8D0EC27C0C62ED12CF6013197EE3035
:10229000F10508F068C0EE5BFF4F0C94D21AC4E859
:1022A000D6EF27E64DC0C4E8D6EF23E549C0C3E822
:1022B000D5EE2EE445C0C4E8D6EF42C0C3E8D5EE63
:1022C00023E43EC0C3E8D5EE27C0C3E8D5EE28C05E
:1022D000C1E8DAEC20E034C0062F10E0F8013697B0
:1022E000E930F10508F03FC0E05BFF4F0C94D21AD3
:1022F000C4E8D6EF29E424C0C7E8DFEF24EC20C00F
:10230000C4E8D6EF05C0C3E8D5EE02C0C1E8D3EDFE
:1023100024E416C0C4E8D6EF21E412C0C4E8D6EF26
:1023200020E40EC0C2E8D9EDD5CFC4E8D6EF27EA45
:1023300007C0C7E8DFEF2FE303C0C1E8D3ED28E112
:1023400042FDCF778C01422F6AE20E94E60F4D2FAB
:1023500069E2C8010E94E60F4C2F68E2C8010E94A2
:10236000E60F80E001C081E0DF91CF911F910F91D6
:10237000FF90EF90DF90CF9008950F931F93CF932E
:10238000DF9300D000D0CDB7DEB74130B1F40C837D
:102390001B83890122273327502F5C71402F437004
:1023A00078E0579F400D112448604A8355E0169508
:1023B00007955A95E1F709830DC0A80123E05695CA
:1023C00047952A95E1F749830295000F007E0A831D
:1023D0001C821B8224E0AE014F5F5F4F0E940810F9
:1023E0000F900F900F900F90DF91CF911F910F9151
:1023F00008950F931F93CF93DF9300D000D0CDB7F4
:10240000DEB7E62FF42FA901662777270C831B83FD
:10241000F13081F4342F3C71242F2370F8E03F9F7A
:10242000200D112428602A8335E0569547953A956A
:10243000E1F70AC0242F2295220F207E2A8323E071
:10244000569547952A95E1F7498324E0AE014F5F01
:102450005F4F6E2F0E9408100F900F900F900F90FB
:10246000DF91CF911F910F9108950F931F93CF93F9
:10247000DF93EC0100E010E0980141E060E20E948F
:10248000F91100E010E0980141E064E2CE010E9401
:10249000F91100E010E0980141E060E0CE010E94F7
:1024A000F91100E010E0980140E064E0CE010E94E4
:1024B000F91100E010E0980141E068E0CE010E94CF
:1024C000F91100E010E0980140E060E1CE010E94C7
:1024D000F91100E010E0980141E064E1CE010E94B2
:1024E000F91100E010E0980140E068E1CE010E949F
:1024F000F91110E340E0612FCE010E94E60F60E188
:10250000610F40E0CE010E94E60F60E2610F40E003
:10251000CE010E94E60F1F5F1E3361F740E060E6C8
:10252000CE010E94E60F40E060E7CE01DF91CF913F
:102530001F910F910C94E60FEF92FF920F931F9350
:10254000CF93DF93EC01062FF42EE22E0E94710F41
:1025500080E48B8B60E8CE010E94AF10182F882397
:1025600041F06FEA71E081E993E00E94A215812FAA
:102570005CC067E871E081E993E00E94A2154E2DEE
:102580006F2DCE010E94F710882339F06BE671E0C1
:1025900081E993E00E94A21547C06EE471E081E9F1
:1025A00093E00E94A215CE010E94351243E06BE237
:1025B000CE010E94E60F4CE36CE0CE010E94E60FD4
:1025C00040E06DE0CE010E94E60F002351F00330A1
:1025D00019F524E644E660E6CE010E943E1020E6AE
:1025E00007C024E044E660E6CE010E943E1020E0F1
:1025F00040E660E7CE010E943E106B89CE010E944A
:10260000AF10C82F882381F06CE071E081E993E07E
:102610000E94A2158C2F09C062E371E081E993E06A
:102620000E94A21581E001C080E0DF91CF911F914F
:102630000F91FF90EF900895EF92FF920F931F93E9
:10264000CF93DF9300D000D0CDB7DEB77A018901F8
:10265000FA011082F901108211821282138224E0A1
:10266000AE014F5F5F4F0E94AF0F2A813981822FE9
:1026700090E065E0959587956A95E1F7F8E03F9FD2
:10268000800D911D1124092E000CAA0BBB0BF80123
:1026900080839183A283B38323FF25C032E0880F18
:1026A000991FAA1FBB1F3A95D1F72370820F911D66
:1026B000A11DB11DBA2FA92F982F88272B81820F1A
:1026C000911DA11DB11DBA2FA92F982F88272C81EC
:1026D000820F911DA11DB11D80839183A283B383BD
:1026E00081E0F70180830F900F900F900F90DF91A2
:1026F000CF911F910F91FF90EF900895FF920F934C
:102700001F93CF93DF93EC01F62EAC014A5F5F4F2E
:1027100065E06F0D2D810E9408108E85813019F4BF
:102720008D8180648D8364E06F0D4D81CE010E94A8
:10273000E60F09811A812B813C8148816F2DCE01E2
:102740000E94BD11DF91CF911F910F91FF900895CD
:102750000F931F93CF93DF93EC01162F9C012F5FF4
:102760003F4FAC010E941C136FEF610FCE010E941E
:102770008D0F082F64E0610FCE010E948D0F8D83B5
:1027800003FF03C091E09E8701C01E86282F2F7093
:102790002D83AE014A5F5F4F65E0610FCE01DF918F
:1027A000CF911F910F910C94AF0F8F929F92AF9288
:1027B000BF92CF92DF92EF92FF921F93CF93DF935E
:1027C00000D01F92CDB7DEB74C016B018091FA01AA
:1027D0009091FB01A091FC0189839A83AB83FB015B
:1027E0001082CE0101967C015E0194E0A90EB11C1D
:1027F000F70111917F01612FC4010E948D0F982F65
:10280000987083FD04C01F5FF601108304C0EA14B2
:10281000FB0471F792E0892F0F900F900F90DF91DA
:10282000CF911F91FF90EF90DF90CF90BF90AF902E
:102830009F908F900895CF93DF93EC01862F6A8B42
:1028400061E00E943C0D61E08A890E94000D82E3F4
:1028500094E0998B888BDF91CF910895FF920F932D
:102860001F93CF93DF93EC01162F042FF22E0E94BB
:10287000B2182F2D402F612FCE010E949C1291E0A3
:10288000811101C090E0892FDF91CF911F910F91AD
:10289000FF900895BF92CF92DF92EF92FF920F9335
:1028A0001F93CF93DF931F92CDB7DEB78C010E94A9
:1028B000F80D6B017C01BE016F5F7F4FC8010E9464
:1028C000D513B82E0E94F80DDC01CB018C199D099F
:1028D000AE09BF0922E0B21206C0843C9940A105AE
:1028E000B10548F331C0843C9940A105B10560F5BC
:1028F0006981C8010E947E136981615028E048E027
:10290000C8010E943E100E94F80D6B017C01698194
:102910006150C8010E948D0FB82E0E94F80DDC0195
:10292000CB018C199D09AE09BF09B3FE06C0843CDA
:102930009940A105B10558F309C0843C9940A1050F
:10294000B10520F480E003C086E001C087E00F906D
:10295000DF91CF911F910F91FF90EF90DF90CF907B
:10296000BF900895EF92FF920F93FC014183528331
:1029700063837483168620830583F701DC01169632
:102980009C01225F3F4F41914D93A217B307D9F7A6
:102990000F91FF90EF900C944A14CF93DF93EC01CA
:1029A0000E94661080FF07C061E6CE010E94A81356
:1029B00020E041E008C081FF0CC061E7CE010E9429
:1029C000A81320E042E06CE2CE010E943E1080E0BD
:1029D00001C084E0DF91CF910895CF92DF92EF9212
:1029E000FF920F931F93CF93DF93EC016B017A015A
:1029F00089010E94CD14843099F18881882349F09F
:102A000089819A81AB81BC81B06889839A83AB83C9
:102A1000BC838E85882349F089819A81AB81BC81F2
:102A2000B06489839A83AB83BC8389819A81AB81AB
:102A3000BC81F60180839183A283B3838D81F701EA
:102A40008083DE011696F8018D8190E09F01201BA6
:102A5000310B281739071CF48D918193F5CF80E055
:102A6000DF91CF911F910F91FF90EF90DF90CF906A
:102A70000895CF92DF92EF92FF920F931F93CF931F
:102A8000DF936C017A018B01C0E0D0E0CE15DF0549
:102A900081F0D8016D918D01D601ED91FC910190ED
:102AA000F081E02DC6010995892B11F02196EECF1A
:102AB0007E01C701DF91CF911F910F91FF90EF90A1
:102AC000DF90CF9008956115710579F0FB010190B9
:102AD0000020E9F73197AF01461B570BDC01ED9160
:102AE000FC910280F381E02D099480E090E008954C
:102AF000EF92FF920F931F93CF93DF938C017B0193
:102B0000C0E0D0E0F701EC0FFD1F6491662361F097
:102B1000D801ED91FC910190F081E02DC80109955B
:102B2000892B11F02196EECFCE01DF91CF911F912D
:102B30000F91FF90EF9008950C94631561E273E09C
:102B40000C9463150F931F93CF93DF93EC010E94B6
:102B500078158C01CE010E949E15800F911FDF9188
:102B6000CF911F910F9108958F929F92AF92BF9234
:102B7000EF92FF920F931F93CF93DF93CDB7DEB702
:102B8000A1970FB6F894DEBF0FBECDBF7C01FA014E
:102B9000CB0119A2223008F42AE08E010F5D1F4FED
:102BA000822E912CA12CB12CBF01A50194010E9471
:102BB000B01AF901CA01015011096A3014F4605DBC
:102BC00001C0695CD8016C93232B242B252B61F762
:102BD000B801C7010E946315A1960FB6F894DEBF35
:102BE0000FBECDBFDF91CF911F910F91FF90EF905E
:102BF000BF90AF909F908F9008952115310541F4BB
:102C0000DC01ED91FC910190F081E02D642F09949D
:102C10000C94B4159A01AB0160E070E00C94FD15C2
:102C20000F931F93CF93DF93EC010E940A168C0140
:102C3000CE010E949E15800F911FDF91CF911F91B1
:102C40000F9108950F931F93CF93DF93EC010E9490
:102C5000EC0D688779878A879B87E881F9810484EE
:102C6000F585E02DCE01099597FF17C00E94EC0D68
:102C7000088519852A853B85DC01CB01801B910BDA
:102C8000A20BB30B0C811D812E813F818017910710
:102C9000A207B30710F38FEF9FEFDF91CF911F9142
:102CA0000F910895FF920F931F93CF93DF93EC0141
:102CB0008B01F42ECE010E94221697FD2DC08D327D
:102CC000910519F19C01205331092A30310520F179
:102CD000FF2019F08E329105D1F001301105D1F0AD
:102CE0000230110551F48D30910539F024F4099723
:102CF000029718F00FC0809769F4E881F981028487
:102D0000F385E02DCE010995D5CF8DE201C08EE28D
:102D100090E002C08FEF9FEFDF91CF911F910F9155
:102D2000FF900895BF92CF92DF92EF92FF920F93A0
:102D30001F93CF93DF938C01C42F40E00E94521663
:102D4000FC0197FD47C0C12CD12C7601B12C0C2E73
:102D5000000CDD0BEC17FD0709F1ED32F105E1F098
:102D6000CF01C0970A97D0F4AAE0B0E0A70196017E
:102D70000E94D81A6F01FF0FEE08FF08DC01CB019B
:102D80008C0D9D1DAE1DBF1D6C017D0120E3C21A7F
:102D9000D108E108F10802C0BB24B394D801ED9139
:102DA000FC910284F385E02DC8010995C8010E94B9
:102DB0002216FC01C0970A9768F2CE17DF0751F27E
:102DC000BB2061F066277727CB016C197D098E093E
:102DD0009F0906C060E070E0CB0102C0C701B601E8
:102DE000DF91CF911F910F91FF90EF90DF90CF90E7
:102DF000BF9008951F920F920FB60F9211242F9338
:102E00008F939F93EF93FF93E091A103F091A2031F
:102E10008081E091A703F091A80382FD12C0908108
:102E20008091AA038F5F8F732091AB03821751F0BB
:102E3000E091AA03F0E0EF56FC4F958F8093AA0330
:102E400001C08081FF91EF919F918F912F910F9001
:102E50000FBE0F901F9018951F920F920FB60F92F2
:102E600011242F933F934F935F936F937F938F938F
:102E70009F93AF93BF93EF93FF9381E993E00E94F9
:102E8000BC17FF91EF91BF91AF919F918F917F916F
:102E90006F915F914F913F912F910F900FBE0F90C7
:102EA0001F901895E1E9F3E01382128288EE93E017
:102EB000A0E0B0E084839583A683B78384E393E0A6
:102EC0009183808385EC90E09587848784EC90E003
:102ED0009787868780EC90E0918B808B81EC90E0E7
:102EE000938B828B82EC90E0958B848B86EC90E0C8
:102EF000978B868B118E128E138E148E0895FC0183
:102F0000918D228D892F90E0805C9F4F821B9109CB
:102F10008F7399270895FC01918D828D981731F058
:102F2000828DE80FF11D858D90E008958FEF9FEF62
:102F30000895FC01918D828D981761F0828DDF01DB
:102F4000A80FB11D5D968C91928D9F5F9F73928F9C
:102F500090E008958FEF9FEF0895FC01538D448D0D
:102F6000252F30E0842F90E0821B930B541710F034
:102F7000CF96089501970895FC01848DDF01A80F75
:102F8000B11DA35ABF4F2C91848D90E001968F7391
:102F90009927848FA689B7892C93A089B1898C91B0
:102FA000837080648C93938D848D981306C00288FF
:102FB000F389E02D80818F7D80830895EF92FF92C9
:102FC0000F931F93CF93DF93EC0181E0888F9B8D4C
:102FD0008C8D981305C0E889F989808185FD26C00C
:102FE000F62E0B8D10E00F5F1F4F0F731127E02E91
:102FF0008C8DE8120CC00FB607FCFACFE889F9896E
:10300000808185FFF5CFCE010E94BC17F1CF8B8D5B
:10301000FE01E80FF11DE35AFF4FF0829FB7F894CD
:103020000B8FEA89FB89808180620AC09FB7F89480
:10303000EE89FF896083E889F989808183708064E3
:1030400080839FBF81E090E0DF91CF911F910F912E
:10305000FF90EF900895CF93DF93EC01888D882344
:10306000C9F0EA89FB89808185FD05C0A889B989F5
:103070008C9186FD0FC00FB607FCF5CF808185FFD0
:10308000F2CFA889B9898C9185FFEDCFCE010E943E
:10309000BC17E7CFDF91CF910895CF92DF92EF92E7
:1030A000FF921F93CF93DF93EC016A017B01122FF4
:1030B000E889F98982E080834115514E61057105E7
:1030C000B1F060E079E08DE390E0A70196010E9405
:1030D000B01ADA01C9010197A109B109B695A795FE
:1030E000979587959C01211580E13807A8F0E8891C
:1030F000F989108260E874E88EE190E0A7019601FA
:103100000E94B01ADA01C9010197A109B109B69567
:10311000A795979587959C01EC85FD853083EE8575
:10312000FF852083188EEC89FD891083EA89FB894D
:10313000808180618083EA89FB89808188608083C7
:10314000EA89FB89808180688083EA89FB898081A4
:103150008F7D8083DF91CF911F91FF90EF90DF9063
:10316000CF900895CF93CFB7F89480913104811117
:1031700027C0E4EEF0E08491E0EDF0E09491E82FD8
:10318000F0E0EE0FFF1FEE5FFE4FA591B491EC91C2
:10319000E92321F461E08AE00E943C0D61E08AE0CD
:1031A0000E94000D8CB580618CBD8CB580648CBD97
:1031B00061E08DE00E94000D61E08BE00E94000D57
:1031C000809131048F5F80933104CFBFCF910895F8
:1031D000F8940C94F21A0E94FF180C94041A0E949E
:1031E000FD1958F00E94F61940F029F45F3F29F0CC
:1031F0000C94ED1951110C94381A0C94F3190E9487
:10320000151A68F39923B1F3552391F3951B550BC8
:10321000BB27AA2762177307840738F09F5F5F4FA9
:10322000220F331F441FAA1FA9F335D00E2E3AF0E8
:10323000E0E832D091505040E695001CCAF72BD000
:10324000FE2F29D0660F771F881FBB1F2617370751
:103250004807AB07B0E809F0BB0B802DBF01FF2783
:1032600093585F4F3AF09E3F510578F00C94ED195A
:103270000C94381A5F3FE4F3983ED4F38695779523
:103280006795B795F7959F5FC9F7880F911D96953C
:10329000879597F90895E1E0660F771F881FBB1F98
:1032A000621773078407BA0720F0621B730B840B45
:1032B000BA0BEE1F88F7E09508950E941D1A88F05A
:1032C0009F5798F0B92F9927B751B0F0E1F0660FEA
:1032D000771F881F991F1AF0BA95C9F714C0B1302B
:1032E00091F00E94371AB1E008950C94371A672FB5
:1032F000782F8827B85F39F0B93FCCF3869577955A
:103300006795B395D9F73EF4909580957095619542
:103310007F4F8F4F9F4F0895E89409C097FB3EF46D
:1033200090958095709561957F4F8F4F9F4F992312
:10333000A9F0F92F96E9BB279395F6958795779590
:103340006795B795F111F8CFFAF4BB0F11F460FF50
:103350001BC06F5F7F4F8F4F9F4F16C0882311F0A8
:1033600096E911C0772321F09EE8872F762F05C0BC
:10337000662371F096E8862F70E060E02AF09A9557
:10338000660F771F881FDAF7880F9695879597F94C
:103390000895990F0008550FAA0BE0E8FEEF1616E6
:1033A0001706E807F907C0F012161306E407F50739
:1033B00098F0621B730B840B950B39F40A2661F0AD
:1033C000232B242B252B21F408950A2609F4A14050
:1033D000A6958FEF811D811D089597F99F6780E85D
:1033E00070E060E008959FEF80EC089500240A9457
:1033F0001616170618060906089500240A941216D0
:103400001306140605060895092E0394000C11F402
:10341000882352F0BB0F40F4BF2B11F460FF04C0AF
:103420006F5F7F4F8F4F9F4F089557FD9058440F08
:10343000551F59F05F3F71F04795880F97FB991F13
:1034400061F09F3F79F087950895121613061406D0
:10345000551FF2CF4695F1DF08C01616170618065D
:10346000991FF1CF86957105610508940895E89438
:10347000BB2766277727CB0197F908950E94C919C2
:1034800008F48FEF08950E94561A0C94041A0E94B3
:10349000F61938F00E94FD1920F0952311F00C94D4
:1034A000ED190C94F31911240C94381A0E94151A72
:1034B00070F3959FC1F3950F50E0551F629FF00187
:1034C000729FBB27F00DB11D639FAA27F00DB11DA0
:1034D000AA1F649F6627B00DA11D661F829F222729
:1034E000B00DA11D621F739FB00DA11D621F839FB0
:1034F000A00D611D221F749F3327A00D611D231F86
:10350000849F600D211D822F762F6A2F11249F57D3
:1035100050409AF0F1F088234AF0EE0FFF1FBB1FD6
:10352000661F771F881F91505040A9F79E3F510595
:1035300080F00C94ED190C94381A5F3FE4F3983E38
:10354000D4F3869577956795B795F795E7959F5F3F
:10355000C1F7FE2B880F911D9695879597F90895D1
:10356000A1E21A2EAA1BBB1BFD010DC0AA1FBB1F87
:10357000EE1FFF1FA217B307E407F50720F0A21BF9
:10358000B30BE40BF50B661F771F881F991F1A9466
:1035900069F760957095809590959B01AC01BD0190
:1035A000CF010895EE0FFF1F0590F491E02D0994CF
:1035B0000E94E31AA59F900DB49F900DA49F800DCB
:1035C000911D11240895A29FB001B39FC001A39F34
:1035D000700D811D1124911DB29F700D811D11244C
:0835E000911D0895F894FFCF3E
:1035E80000000000000000000000000000000000D3
:1035F80000000000000000000000000000000000C3
:1036080000000000000000000000000000000000B2
:1036180000000000000000000000000000000000A2
:103628000000000000000000000000000000000092
:103638000000000000000000000000000000000082
:103648000000000000000000FF01FFFFFFFFFFFF78
:10365800FFFF0000D50200008203FFFFFFFFFFFF0E
:10366800FFFF000065020000000064000000200366
:103678000000026E02000000005A000000BC0200B8
:1036880000027702000000003C0000005802000021
:103698000280020000000064000000E8030000024D
:1036A8000000000500000000040000000003000006
:1036B8000000020001000000FFFF00000100000000
:1036C8000000000000000000000000000600FF00ED
:1036D800000100FF0000F00EF00E304050FF4341A3
:1036E8004E204D32207472616E736D697469646125
:1036F80020636F6D207375636573736F2E20566139
:103708006C6F7220656E63617073756C61646F3A7B
:10371800200056616C6F722064612076656C6F635F
:10372800696461646520656E76696164613A200048
:1037380056616C6F72207265616C3A2000B101A20B
:103748000193018401D4015D096B02D90601D401FA
:103758005D097402D90602D4015D097D02D906000B
:10376800D4015D098602D90603CF01CA01C501C08B
:10377800018203C702B902AB029D02D50235049942
:103788000500011E0B00000305010099064904000D
:1037980001DA0A00000204010033049B070001F962
:1037A8000B00000103010037049B060001730C00A5
:1037B8000000020100470449055000940E0000046F
:1037C800000100F101EC010001010101000000000D
:1037D80000EF07BD07C6079F0733053C07200565AF
:1037E800074108E206EA06FA08310833095A08666A
:1037F80009A5089D09DD06EF097D08520A930AC448
:10380800080D0A006E616E00696E66006F766600CC
:1038180000000000DE173915AD172B187F17991710
:023828008B17FC
:00000001FF
